{
  "contractName": "CustomCollection",
  "abi": [
    {
      "inputs": [
        {
          "internalType": "string",
          "name": "name_",
          "type": "string"
        },
        {
          "internalType": "string",
          "name": "symbol_",
          "type": "string"
        },
        {
          "internalType": "string",
          "name": "collectionMetadata_",
          "type": "string"
        },
        {
          "internalType": "address",
          "name": "creator_",
          "type": "address"
        }
      ],
      "stateMutability": "nonpayable",
      "type": "constructor"
    },
    {
      "anonymous": false,
      "inputs": [
        {
          "indexed": true,
          "internalType": "address",
          "name": "owner",
          "type": "address"
        },
        {
          "indexed": true,
          "internalType": "address",
          "name": "approved",
          "type": "address"
        },
        {
          "indexed": true,
          "internalType": "uint256",
          "name": "tokenId",
          "type": "uint256"
        }
      ],
      "name": "Approval",
      "type": "event"
    },
    {
      "anonymous": false,
      "inputs": [
        {
          "indexed": true,
          "internalType": "address",
          "name": "owner",
          "type": "address"
        },
        {
          "indexed": true,
          "internalType": "address",
          "name": "operator",
          "type": "address"
        },
        {
          "indexed": false,
          "internalType": "bool",
          "name": "approved",
          "type": "bool"
        }
      ],
      "name": "ApprovalForAll",
      "type": "event"
    },
    {
      "anonymous": false,
      "inputs": [
        {
          "indexed": false,
          "internalType": "address",
          "name": "cAddress",
          "type": "address"
        },
        {
          "indexed": false,
          "internalType": "uint256",
          "name": "tokenId",
          "type": "uint256"
        },
        {
          "indexed": false,
          "internalType": "address",
          "name": "from",
          "type": "address"
        }
      ],
      "name": "BidCanceled",
      "type": "event"
    },
    {
      "anonymous": false,
      "inputs": [
        {
          "indexed": false,
          "internalType": "address",
          "name": "cAddress",
          "type": "address"
        },
        {
          "indexed": false,
          "internalType": "uint256",
          "name": "tokenId",
          "type": "uint256"
        },
        {
          "indexed": false,
          "internalType": "address",
          "name": "from",
          "type": "address"
        },
        {
          "indexed": false,
          "internalType": "uint256",
          "name": "price",
          "type": "uint256"
        }
      ],
      "name": "BidPlaced",
      "type": "event"
    },
    {
      "anonymous": false,
      "inputs": [
        {
          "indexed": false,
          "internalType": "address",
          "name": "cAddress",
          "type": "address"
        },
        {
          "indexed": false,
          "internalType": "uint256",
          "name": "tokenId",
          "type": "uint256"
        },
        {
          "indexed": false,
          "internalType": "string",
          "name": "name",
          "type": "string"
        },
        {
          "indexed": false,
          "internalType": "string",
          "name": "image",
          "type": "string"
        },
        {
          "indexed": false,
          "internalType": "string",
          "name": "properties",
          "type": "string"
        },
        {
          "indexed": false,
          "internalType": "string",
          "name": "metadata",
          "type": "string"
        }
      ],
      "name": "NFTCreated",
      "type": "event"
    },
    {
      "anonymous": false,
      "inputs": [
        {
          "indexed": false,
          "internalType": "address",
          "name": "cAddress",
          "type": "address"
        },
        {
          "indexed": false,
          "internalType": "uint256",
          "name": "tokenId",
          "type": "uint256"
        },
        {
          "indexed": false,
          "internalType": "string",
          "name": "eventType",
          "type": "string"
        },
        {
          "indexed": false,
          "internalType": "address",
          "name": "from",
          "type": "address"
        },
        {
          "indexed": false,
          "internalType": "address",
          "name": "to",
          "type": "address"
        },
        {
          "indexed": false,
          "internalType": "uint256",
          "name": "price",
          "type": "uint256"
        }
      ],
      "name": "NFTEvent",
      "type": "event"
    },
    {
      "anonymous": false,
      "inputs": [
        {
          "indexed": true,
          "internalType": "address",
          "name": "from",
          "type": "address"
        },
        {
          "indexed": true,
          "internalType": "address",
          "name": "to",
          "type": "address"
        },
        {
          "indexed": true,
          "internalType": "uint256",
          "name": "tokenId",
          "type": "uint256"
        }
      ],
      "name": "Transfer",
      "type": "event"
    },
    {
      "inputs": [
        {
          "internalType": "address",
          "name": "to",
          "type": "address"
        },
        {
          "internalType": "uint256",
          "name": "tokenId",
          "type": "uint256"
        }
      ],
      "name": "approve",
      "outputs": [],
      "stateMutability": "nonpayable",
      "type": "function"
    },
    {
      "inputs": [
        {
          "internalType": "address",
          "name": "owner",
          "type": "address"
        }
      ],
      "name": "balanceOf",
      "outputs": [
        {
          "internalType": "uint256",
          "name": "",
          "type": "uint256"
        }
      ],
      "stateMutability": "view",
      "type": "function"
    },
    {
      "inputs": [],
      "name": "creator",
      "outputs": [
        {
          "internalType": "address payable",
          "name": "",
          "type": "address"
        }
      ],
      "stateMutability": "view",
      "type": "function"
    },
    {
      "inputs": [
        {
          "internalType": "uint256",
          "name": "tokenId",
          "type": "uint256"
        }
      ],
      "name": "getApproved",
      "outputs": [
        {
          "internalType": "address",
          "name": "",
          "type": "address"
        }
      ],
      "stateMutability": "view",
      "type": "function"
    },
    {
      "inputs": [
        {
          "internalType": "address",
          "name": "owner",
          "type": "address"
        },
        {
          "internalType": "address",
          "name": "operator",
          "type": "address"
        }
      ],
      "name": "isApprovedForAll",
      "outputs": [
        {
          "internalType": "bool",
          "name": "",
          "type": "bool"
        }
      ],
      "stateMutability": "view",
      "type": "function"
    },
    {
      "inputs": [],
      "name": "name",
      "outputs": [
        {
          "internalType": "string",
          "name": "",
          "type": "string"
        }
      ],
      "stateMutability": "view",
      "type": "function"
    },
    {
      "inputs": [
        {
          "internalType": "uint256",
          "name": "",
          "type": "uint256"
        }
      ],
      "name": "nfts",
      "outputs": [
        {
          "internalType": "bool",
          "name": "forSale",
          "type": "bool"
        },
        {
          "internalType": "enum SellType",
          "name": "sellType",
          "type": "uint8"
        },
        {
          "internalType": "uint256",
          "name": "price",
          "type": "uint256"
        },
        {
          "internalType": "uint256",
          "name": "royalty",
          "type": "uint256"
        }
      ],
      "stateMutability": "view",
      "type": "function"
    },
    {
      "inputs": [
        {
          "internalType": "uint256",
          "name": "tokenId",
          "type": "uint256"
        }
      ],
      "name": "ownerOf",
      "outputs": [
        {
          "internalType": "address",
          "name": "",
          "type": "address"
        }
      ],
      "stateMutability": "view",
      "type": "function"
    },
    {
      "inputs": [
        {
          "internalType": "address",
          "name": "from",
          "type": "address"
        },
        {
          "internalType": "address",
          "name": "to",
          "type": "address"
        },
        {
          "internalType": "uint256",
          "name": "tokenId",
          "type": "uint256"
        }
      ],
      "name": "safeTransferFrom",
      "outputs": [],
      "stateMutability": "nonpayable",
      "type": "function"
    },
    {
      "inputs": [
        {
          "internalType": "address",
          "name": "from",
          "type": "address"
        },
        {
          "internalType": "address",
          "name": "to",
          "type": "address"
        },
        {
          "internalType": "uint256",
          "name": "tokenId",
          "type": "uint256"
        },
        {
          "internalType": "bytes",
          "name": "_data",
          "type": "bytes"
        }
      ],
      "name": "safeTransferFrom",
      "outputs": [],
      "stateMutability": "nonpayable",
      "type": "function"
    },
    {
      "inputs": [
        {
          "internalType": "address",
          "name": "operator",
          "type": "address"
        },
        {
          "internalType": "bool",
          "name": "approved",
          "type": "bool"
        }
      ],
      "name": "setApprovalForAll",
      "outputs": [],
      "stateMutability": "nonpayable",
      "type": "function"
    },
    {
      "inputs": [
        {
          "internalType": "bytes4",
          "name": "interfaceId",
          "type": "bytes4"
        }
      ],
      "name": "supportsInterface",
      "outputs": [
        {
          "internalType": "bool",
          "name": "",
          "type": "bool"
        }
      ],
      "stateMutability": "view",
      "type": "function"
    },
    {
      "inputs": [],
      "name": "symbol",
      "outputs": [
        {
          "internalType": "string",
          "name": "",
          "type": "string"
        }
      ],
      "stateMutability": "view",
      "type": "function"
    },
    {
      "inputs": [
        {
          "internalType": "uint256",
          "name": "tokenId",
          "type": "uint256"
        }
      ],
      "name": "tokenURI",
      "outputs": [
        {
          "internalType": "string",
          "name": "",
          "type": "string"
        }
      ],
      "stateMutability": "view",
      "type": "function"
    },
    {
      "inputs": [
        {
          "internalType": "address",
          "name": "from",
          "type": "address"
        },
        {
          "internalType": "address",
          "name": "to",
          "type": "address"
        },
        {
          "internalType": "uint256",
          "name": "tokenId",
          "type": "uint256"
        }
      ],
      "name": "transferFrom",
      "outputs": [],
      "stateMutability": "nonpayable",
      "type": "function"
    },
    {
      "inputs": [
        {
          "internalType": "string",
          "name": "name_",
          "type": "string"
        },
        {
          "internalType": "string",
          "name": "image_",
          "type": "string"
        },
        {
          "internalType": "string",
          "name": "properties_",
          "type": "string"
        },
        {
          "internalType": "string",
          "name": "metadata_",
          "type": "string"
        },
        {
          "internalType": "bool",
          "name": "forSale_",
          "type": "bool"
        },
        {
          "internalType": "bool",
          "name": "isFixedPrice_",
          "type": "bool"
        },
        {
          "internalType": "uint256",
          "name": "price_",
          "type": "uint256"
        },
        {
          "internalType": "uint256",
          "name": "royalty_",
          "type": "uint256"
        },
        {
          "internalType": "string",
          "name": "unlockableString_",
          "type": "string"
        }
      ],
      "name": "mintNFT",
      "outputs": [],
      "stateMutability": "nonpayable",
      "type": "function"
    },
    {
      "inputs": [
        {
          "internalType": "uint256",
          "name": "tokenId",
          "type": "uint256"
        }
      ],
      "name": "buyFixedPriceNFT",
      "outputs": [],
      "stateMutability": "payable",
      "type": "function"
    },
    {
      "inputs": [
        {
          "internalType": "uint256",
          "name": "tokenId",
          "type": "uint256"
        }
      ],
      "name": "placeBid",
      "outputs": [],
      "stateMutability": "payable",
      "type": "function"
    },
    {
      "inputs": [
        {
          "internalType": "uint256",
          "name": "tokenId",
          "type": "uint256"
        }
      ],
      "name": "cancelBid",
      "outputs": [],
      "stateMutability": "nonpayable",
      "type": "function"
    },
    {
      "inputs": [
        {
          "internalType": "uint256",
          "name": "tokenId",
          "type": "uint256"
        },
        {
          "internalType": "address",
          "name": "to_",
          "type": "address"
        }
      ],
      "name": "sellBiddingNFT",
      "outputs": [],
      "stateMutability": "nonpayable",
      "type": "function"
    },
    {
      "inputs": [
        {
          "internalType": "uint256",
          "name": "tokenId",
          "type": "uint256"
        }
      ],
      "name": "getUnlockableContent",
      "outputs": [
        {
          "internalType": "string",
          "name": "",
          "type": "string"
        }
      ],
      "stateMutability": "view",
      "type": "function"
    },
    {
      "inputs": [
        {
          "internalType": "uint256",
          "name": "tokenId",
          "type": "uint256"
        },
        {
          "internalType": "bool",
          "name": "setFixPrice",
          "type": "bool"
        },
        {
          "internalType": "bool",
          "name": "forSale",
          "type": "bool"
        },
        {
          "internalType": "uint256",
          "name": "newPrice",
          "type": "uint256"
        }
      ],
      "name": "modifyListingMechanism",
      "outputs": [],
      "stateMutability": "nonpayable",
      "type": "function"
    },
    {
      "inputs": [
        {
          "internalType": "string[]",
          "name": "names",
          "type": "string[]"
        },
        {
          "internalType": "string[]",
          "name": "images",
          "type": "string[]"
        },
        {
          "internalType": "string[]",
          "name": "properties",
          "type": "string[]"
        },
        {
          "internalType": "string[]",
          "name": "metadatas",
          "type": "string[]"
        },
        {
          "internalType": "bool",
          "name": "forSale_",
          "type": "bool"
        },
        {
          "internalType": "bool",
          "name": "isFixedPrice_",
          "type": "bool"
        },
        {
          "internalType": "uint256",
          "name": "price_",
          "type": "uint256"
        },
        {
          "internalType": "uint256",
          "name": "royalty_",
          "type": "uint256"
        },
        {
          "internalType": "uint256",
          "name": "nItems",
          "type": "uint256"
        }
      ],
      "name": "mintBatch",
      "outputs": [],
      "stateMutability": "nonpayable",
      "type": "function"
    }
  ],
  "bytecode": "0x60806040523480156200001157600080fd5b50604051620032bd380380620032bd833981016040819052620000349162000227565b600160008190558451859185916200005291906020850190620000b4565b50805162000068906002906020840190620000b4565b5050600980546001600160a01b0384166001600160a01b031991821617909155600b805490911633179055508151620000a990600a906020850190620000b4565b505050505062000317565b828054620000c290620002da565b90600052602060002090601f016020900481019282620000e6576000855562000131565b82601f106200010157805160ff191683800117855562000131565b8280016001018555821562000131579182015b828111156200013157825182559160200191906001019062000114565b506200013f92915062000143565b5090565b5b808211156200013f576000815560010162000144565b634e487b7160e01b600052604160045260246000fd5b600082601f8301126200018257600080fd5b81516001600160401b03808211156200019f576200019f6200015a565b604051601f8301601f19908116603f01168101908282118183101715620001ca57620001ca6200015a565b81604052838152602092508683858801011115620001e757600080fd5b600091505b838210156200020b5785820183015181830184015290820190620001ec565b838211156200021d5760008385830101525b9695505050505050565b600080600080608085870312156200023e57600080fd5b84516001600160401b03808211156200025657600080fd5b620002648883890162000170565b955060208701519150808211156200027b57600080fd5b620002898883890162000170565b94506040870151915080821115620002a057600080fd5b50620002af8782880162000170565b606087015190935090506001600160a01b0381168114620002cf57600080fd5b939692955090935050565b600181811c90821680620002ef57607f821691505b602082108114156200031157634e487b7160e01b600052602260045260246000fd5b50919050565b612f9680620003276000396000f3fe6080604052600436106101405760003560e01c80636fe04294116100b6578063af345ec61161006f578063af345ec6146103b7578063afc7fbd5146103d7578063b88d4fde146103f7578063c87b56dd14610417578063e985e9c514610437578063fe4867121461048057600080fd5b80636fe042941461030157806370a082311461032157806395d89b411461034f5780639703ef35146103645780639979ef4514610384578063a22cb4651461039757600080fd5b806323b872dd1161010857806323b872dd14610216578063265aa621146102365780632af6c4481461028e57806342842e0e146102a15780636352211e146102c15780636c4026a4146102e157600080fd5b806301ffc9a71461014557806302d05d3f1461017a57806306fdde03146101b2578063081812fc146101d4578063095ea7b3146101f4575b600080fd5b34801561015157600080fd5b506101656101603660046124c4565b6104a0565b60405190151581526020015b60405180910390f35b34801561018657600080fd5b5060095461019a906001600160a01b031681565b6040516001600160a01b039091168152602001610171565b3480156101be57600080fd5b506101c76104f2565b6040516101719190612539565b3480156101e057600080fd5b5061019a6101ef36600461254c565b610584565b34801561020057600080fd5b5061021461020f366004612581565b610611565b005b34801561022257600080fd5b506102146102313660046125ab565b610727565b34801561024257600080fd5b5061027e61025136600461254c565b600c6020526000908152604090208054600182015460029092015460ff8083169361010090930416919084565b60405161017194939291906125fd565b61021461029c36600461254c565b610758565b3480156102ad57600080fd5b506102146102bc3660046125ab565b610bfb565b3480156102cd57600080fd5b5061019a6102dc36600461254c565b610c16565b3480156102ed57600080fd5b506102146102fc3660046127ad565b610c8d565b34801561030d57600080fd5b5061021461031c366004612899565b610d43565b34801561032d57600080fd5b5061034161033c3660046128dd565b610e29565b604051908152602001610171565b34801561035b57600080fd5b506101c7610eb0565b34801561037057600080fd5b5061021461037f36600461254c565b610ebf565b61021461039236600461254c565b611037565b3480156103a357600080fd5b506102146103b23660046128f8565b61129e565b3480156103c357600080fd5b506102146103d236600461292b565b6112ad565b3480156103e357600080fd5b506102146103f236600461294e565b611627565b34801561040357600080fd5b50610214610412366004612a55565b61186c565b34801561042357600080fd5b506101c761043236600461254c565b6118a4565b34801561044357600080fd5b50610165610452366004612ad1565b6001600160a01b03918216600090815260066020908152604080832093909416825291909152205460ff1690565b34801561048c57600080fd5b506101c761049b36600461254c565b611a1b565b60006001600160e01b031982166380ac58cd60e01b14806104d157506001600160e01b03198216635b5e139f60e01b145b806104ec57506301ffc9a760e01b6001600160e01b03198316145b92915050565b60606001805461050190612afb565b80601f016020809104026020016040519081016040528092919081815260200182805461052d90612afb565b801561057a5780601f1061054f5761010080835404028352916020019161057a565b820191906000526020600020905b81548152906001019060200180831161055d57829003601f168201915b5050505050905090565b600061058f82611b20565b6105f55760405162461bcd60e51b815260206004820152602c60248201527f4552433732313a20617070726f76656420717565727920666f72206e6f6e657860448201526b34b9ba32b73a103a37b5b2b760a11b60648201526084015b60405180910390fd5b506000908152600560205260409020546001600160a01b031690565b600061061c82610c16565b9050806001600160a01b0316836001600160a01b0316141561068a5760405162461bcd60e51b815260206004820152602160248201527f4552433732313a20617070726f76616c20746f2063757272656e74206f776e656044820152603960f91b60648201526084016105ec565b336001600160a01b03821614806106a657506106a68133610452565b6107185760405162461bcd60e51b815260206004820152603860248201527f4552433732313a20617070726f76652063616c6c6572206973206e6f74206f7760448201527f6e6572206e6f7220617070726f76656420666f7220616c6c000000000000000060648201526084016105ec565b6107228383611b3d565b505050565b6107313382611bab565b61074d5760405162461bcd60e51b81526004016105ec90612b36565b610722838383611c91565b600260005414156107ab5760405162461bcd60e51b815260206004820152601f60248201527f5265656e7472616e637947756172643a207265656e7472616e742063616c6c0060448201526064016105ec565b6002600055806107ba60085490565b8111156107d95760405162461bcd60e51b81526004016105ec90612b87565b816107e381610c16565b6001600160a01b0316336001600160a01b031614156108145760405162461bcd60e51b81526004016105ec90612be4565b6000838152600c60209081526040808320815160808101909252805460ff808216151584529293919291840191610100909104166001811115610859576108596125e7565b600181111561086a5761086a6125e7565b815260018201546020820152600290910154604090910152905060008160200151600181111561089c5761089c6125e7565b1461090f5760405162461bcd60e51b815260206004820152603a60248201527f437573746f6d436f6c6c656374696f6e203a20706c616365426964202d3e204e60448201527f4654206973206c697374656420666f722062696473206f6e6c7900000000000060648201526084016105ec565b80516109835760405162461bcd60e51b815260206004820152603a60248201527f437573746f6d436f6c6c656374696f6e203a206275794669786564507269636560448201527f4e4654202d3e204e4654206973206e6f7420666f722073616c6500000000000060648201526084016105ec565b80604001513414610a0d5760405162461bcd60e51b815260206004820152604860248201527f437573746f6d436f6c6c656374696f6e203a206275794669786564507269636560448201527f4e4654202d3e20506c656173652073656e6420657861637420616d6f756e7420606482015267617320707269636560c01b608482015260a4016105ec565b600954606082015160408301516001600160a01b03909216916108fc91606491610a379190612c41565b610a419190612c76565b6040518115909202916000818181858888f19350505050158015610a69573d6000803e3d6000fd5b50610a7384610c16565b6001600160a01b03166108fc6064600184606001516064610a949190612c8a565b610a9e9190612c8a565b8460400151610aad9190612c41565b610ab79190612c76565b6040518115909202916000818181858888f19350505050158015610adf573d6000803e3d6000fd5b50600b546001600160a01b031663c63d15fd30610afb87610c16565b6040516001600160e01b031960e085901b1681526001600160a01b0392831660048201529116602482015233604482015260648101879052608401600060405180830381600087803b158015610b5057600080fd5b505af1158015610b64573d6000803e3d6000fd5b5050600b54610b7f92506001600160a01b0316905085610611565b6000848152600c60205260409020805460ff191690557fd150b62f2313c33b378415934acdff9ca2554598f9325710306b1c3e274b741b3085610bc181610c16565b3364e8d4a510008660400151610bd79190612c76565b604051610be8959493929190612ca1565b60405180910390a1505060016000555050565b6107228383836040518060200160405280600081525061186c565b6000818152600360205260408120546001600160a01b0316806104ec5760405162461bcd60e51b815260206004820152602960248201527f4552433732313a206f776e657220717565727920666f72206e6f6e657869737460448201526832b73a103a37b5b2b760b91b60648201526084016105ec565b60005b81811015610d3757610d258a8281518110610cad57610cad612cf1565b60200260200101518a8381518110610cc757610cc7612cf1565b60200260200101518a8481518110610ce157610ce1612cf1565b60200260200101518a8581518110610cfb57610cfb612cf1565b60200260200101518a8a8a8a604051806060016040528060318152602001612f3060319139611627565b80610d2f81612d07565b915050610c90565b50505050505050505050565b83610d4d60085490565b811115610d6c5760405162461bcd60e51b81526004016105ec90612b87565b84610d7681610c16565b6001600160a01b0316336001600160a01b031614610da65760405162461bcd60e51b81526004016105ec90612d22565b600080878152600c6020526040902054610100900460ff166001811115610dcf57610dcf6125e7565b1415610e215784610e00576000868152600c60205260409020805461ff001916610100178155600101839055610e21565b6000868152600c60205260409020805460ff19168515151781556001018390555b505050505050565b60006001600160a01b038216610e945760405162461bcd60e51b815260206004820152602a60248201527f4552433732313a2062616c616e636520717565727920666f7220746865207a65604482015269726f206164647265737360b01b60648201526084016105ec565b506001600160a01b031660009081526004602052604090205490565b60606002805461050190612afb565b80610ec960085490565b811115610ee85760405162461bcd60e51b81526004016105ec90612b87565b8160016000828152600c6020526040902054610100900460ff166001811115610f1357610f136125e7565b14610f305760405162461bcd60e51b81526004016105ec90612d6d565b6000838152600d60209081526040808320338452909152902054610fa25760405162461bcd60e51b8152602060048201526024808201527f437573746f6d436f6c6c656374696f6e202d3e204e6f20626964206279206361604482015263363632b960e11b60648201526084016105ec565b6000838152600d60209081526040808320338085529252808320805490849055905190926108fc841502918491818181858888f19350505050158015610fec573d6000803e3d6000fd5b50604080513081526020810186905233918101919091527fb4b7bfeef342bc38bed50c4af23900b8bfe1ef97943592a983c896816c109d9d906060015b60405180910390a150505050565b8061104160085490565b8111156110605760405162461bcd60e51b81526004016105ec90612b87565b8161106a81610c16565b6001600160a01b0316336001600160a01b0316141561109b5760405162461bcd60e51b81526004016105ec90612be4565b8260016000828152600c6020526040902054610100900460ff1660018111156110c6576110c66125e7565b146110e35760405162461bcd60e51b81526004016105ec90612d6d565b6000848152600d602090815260408083203384529091529020541561117c5760405162461bcd60e51b815260206004820152604360248201527f437573746f6d436f6c6c656374696f6e203a20706c616365426964202d3e204360448201527f616e2774206269642074776963652e2043616e63656c2050726576696f757320606482015262189a5960ea1b608482015260a4016105ec565b6000848152600c60205260409020600101543410156112135760405162461bcd60e51b815260206004820152604760248201527f437573746f6d436f6c6c656374696f6e203a20706c616365426964202d3e204360448201527f616e277420626964206c6f776572207468616e206e66742773206d696e696d756064820152666d20707269636560c81b608482015260a4016105ec565b6000848152600d6020908152604080832033808552925290912034908190557f0158f5674dc243762459b88cfc91b10d2d1ef9d40821cca978c2b680aa4446829130918791906112699064e8d4a5100090612c76565b60405161102994939291906001600160a01b039485168152602081019390935292166040820152606081019190915260800190565b6112a9338383611e31565b5050565b600260005414156113005760405162461bcd60e51b815260206004820152601f60248201527f5265656e7472616e637947756172643a207265656e7472616e742063616c6c0060448201526064016105ec565b60026000558161130f60085490565b81111561132e5760405162461bcd60e51b81526004016105ec90612b87565b8261133881610c16565b6001600160a01b0316336001600160a01b0316146113685760405162461bcd60e51b81526004016105ec90612d22565b8360016000828152600c6020526040902054610100900460ff166001811115611393576113936125e7565b146113b05760405162461bcd60e51b81526004016105ec90612d6d565b6000858152600d602090815260408083206001600160a01b03881684529091529020546114305760405162461bcd60e51b815260206004820152602860248201527f437573746f6d436f6c6c656374696f6e202d3e204e6f2062696420627920757360448201526765722027746f5f2760c01b60648201526084016105ec565b6009546000868152600c6020908152604080832060020154600d83528184206001600160a01b038a8116865293529220549216916108fc916064916114759190612c41565b61147f9190612c76565b6040518115909202916000818181858888f193505050501580156114a7573d6000803e3d6000fd5b506114b185610c16565b6001600160a01b03166108fc60646001600c60008a81526020019081526020016000206002015460646114e49190612c8a565b6114ee9190612c8a565b6000898152600d602090815260408083206001600160a01b038c16845290915290205461151b9190612c41565b6115259190612c76565b6040518115909202916000818181858888f1935050505015801561154d573d6000803e3d6000fd5b50611559338587610bfb565b7fd150b62f2313c33b378415934acdff9ca2554598f9325710306b1c3e274b741b308661158588610c16565b6000898152600d602090815260408083206001600160a01b038c16845290915290205488906115ba9064e8d4a5100090612c76565b6040516115cb959493929190612ca1565b60405180910390a160408051308152602081018790526001600160a01b0386168183015290517fb4b7bfeef342bc38bed50c4af23900b8bfe1ef97943592a983c896816c109d9d9181900360600190a150506001600055505050565b6009546001600160a01b0316331461169e5760405162461bcd60e51b815260206004820152603460248201527f437573746f6d436f6c6c656374696f6e203a206d696e74546f6b656e202d3e206044820152732737ba1031b7b63632b1ba34b7b71037bbb732b960611b60648201526084016105ec565b6116ac600880546001019055565b60006116b760085490565b90506116c33382611f00565b6116cd8188611f1a565b84156116e957600b546116e9906001600160a01b031682610611565b6000818152600e60209081526040909120835161170892850190612412565b50604051806080016040528087151581526020018661172857600161172b565b60005b600181111561173c5761173c6125e7565b8152602080820187905260409182018690526000848152600c8252919091208251815490151560ff19821681178355928401519192839161ff001990911661ffff1990911617610100836001811115611797576117976125e7565b021790555060408201518160010155606082015181600201559050507f88ababcbfaf84afef06ff7e208affbb3e07eee4832c81797c7ab029bb9212cb130828c8c8c8c6040516117ec96959493929190612dba565b60405180910390a1604080513081526020810183905260c081830181905260069082015265135a5b9d195960d21b60e082015260006060820181905233608083015260a082015290517fd150b62f2313c33b378415934acdff9ca2554598f9325710306b1c3e274b741b918190036101000190a150505050505050505050565b6118763383611bab565b6118925760405162461bcd60e51b81526004016105ec90612b36565b61189e84848484611fa5565b50505050565b60606118af82611b20565b6119155760405162461bcd60e51b815260206004820152603160248201527f45524337323155524953746f726167653a2055524920717565727920666f72206044820152703737b732bc34b9ba32b73a103a37b5b2b760791b60648201526084016105ec565b6000828152600760205260408120805461192e90612afb565b80601f016020809104026020016040519081016040528092919081815260200182805461195a90612afb565b80156119a75780601f1061197c576101008083540402835291602001916119a7565b820191906000526020600020905b81548152906001019060200180831161198a57829003601f168201915b5050505050905060006119c560408051602081019091526000815290565b90508051600014156119d8575092915050565b815115611a0a5780826040516020016119f2929190612e28565b60405160208183030381529060405292505050919050565b611a1384611fd8565b949350505050565b606081611a2760085490565b811115611a465760405162461bcd60e51b81526004016105ec90612b87565b82611a5081610c16565b6001600160a01b0316336001600160a01b031614611a805760405162461bcd60e51b81526004016105ec90612d22565b6000848152600e602052604090208054611a9990612afb565b80601f0160208091040260200160405190810160405280929190818152602001828054611ac590612afb565b8015611b125780601f10611ae757610100808354040283529160200191611b12565b820191906000526020600020905b815481529060010190602001808311611af557829003601f168201915b505050505092505050919050565b6000908152600360205260409020546001600160a01b0316151590565b600081815260056020526040902080546001600160a01b0319166001600160a01b0384169081179091558190611b7282610c16565b6001600160a01b03167f8c5be1e5ebec7d5bd14f71427d1e84f3dd0314c0f7b2291e5b200ac8c7c3b92560405160405180910390a45050565b6000611bb682611b20565b611c175760405162461bcd60e51b815260206004820152602c60248201527f4552433732313a206f70657261746f7220717565727920666f72206e6f6e657860448201526b34b9ba32b73a103a37b5b2b760a11b60648201526084016105ec565b6000611c2283610c16565b9050806001600160a01b0316846001600160a01b03161480611c5d5750836001600160a01b0316611c5284610584565b6001600160a01b0316145b80611a1357506001600160a01b0380821660009081526006602090815260408083209388168352929052205460ff16611a13565b826001600160a01b0316611ca482610c16565b6001600160a01b031614611d0c5760405162461bcd60e51b815260206004820152602960248201527f4552433732313a207472616e73666572206f6620746f6b656e2074686174206960448201526839903737ba1037bbb760b91b60648201526084016105ec565b6001600160a01b038216611d6e5760405162461bcd60e51b8152602060048201526024808201527f4552433732313a207472616e7366657220746f20746865207a65726f206164646044820152637265737360e01b60648201526084016105ec565b611d79600082611b3d565b6001600160a01b0383166000908152600460205260408120805460019290611da2908490612c8a565b90915550506001600160a01b0382166000908152600460205260408120805460019290611dd0908490612e57565b909155505060008181526003602052604080822080546001600160a01b0319166001600160a01b0386811691821790925591518493918716917fddf252ad1be2c89b69c2b068fc378daa952ba7f163c4a11628f55a4df523b3ef91a4505050565b816001600160a01b0316836001600160a01b03161415611e935760405162461bcd60e51b815260206004820152601960248201527f4552433732313a20617070726f766520746f2063616c6c65720000000000000060448201526064016105ec565b6001600160a01b03838116600081815260066020908152604080832094871680845294825291829020805460ff191686151590811790915591519182527f17307eab39ab6107e8899845ad3d59bd9653f200f220920489ca2b5937696c31910160405180910390a3505050565b6112a98282604051806020016040528060008152506120b0565b611f2382611b20565b611f865760405162461bcd60e51b815260206004820152602e60248201527f45524337323155524953746f726167653a2055524920736574206f66206e6f6e60448201526d32bc34b9ba32b73a103a37b5b2b760911b60648201526084016105ec565b6000828152600760209081526040909120825161072292840190612412565b611fb0848484611c91565b611fbc848484846120e3565b61189e5760405162461bcd60e51b81526004016105ec90612e6f565b6060611fe382611b20565b6120475760405162461bcd60e51b815260206004820152602f60248201527f4552433732314d657461646174613a2055524920717565727920666f72206e6f60448201526e3732bc34b9ba32b73a103a37b5b2b760891b60648201526084016105ec565b600061205e60408051602081019091526000815290565b9050600081511161207e57604051806020016040528060008152506120a9565b80612088846121e1565b604051602001612099929190612e28565b6040516020818303038152906040525b9392505050565b6120ba83836122df565b6120c760008484846120e3565b6107225760405162461bcd60e51b81526004016105ec90612e6f565b60006001600160a01b0384163b156121d657604051630a85bd0160e11b81526001600160a01b0385169063150b7a0290612127903390899088908890600401612ec1565b6020604051808303816000875af1925050508015612162575060408051601f3d908101601f1916820190925261215f91810190612efe565b60015b6121bc573d808015612190576040519150601f19603f3d011682016040523d82523d6000602084013e612195565b606091505b5080516121b45760405162461bcd60e51b81526004016105ec90612e6f565b805181602001fd5b6001600160e01b031916630a85bd0160e11b149050611a13565b506001949350505050565b6060816122055750506040805180820190915260018152600360fc1b602082015290565b8160005b811561222f578061221981612d07565b91506122289050600a83612c76565b9150612209565b60008167ffffffffffffffff81111561224a5761224a61263f565b6040519080825280601f01601f191660200182016040528015612274576020820181803683370190505b5090505b8415611a1357612289600183612c8a565b9150612296600a86612f1b565b6122a1906030612e57565b60f81b8183815181106122b6576122b6612cf1565b60200101906001600160f81b031916908160001a9053506122d8600a86612c76565b9450612278565b6001600160a01b0382166123355760405162461bcd60e51b815260206004820181905260248201527f4552433732313a206d696e7420746f20746865207a65726f206164647265737360448201526064016105ec565b61233e81611b20565b1561238b5760405162461bcd60e51b815260206004820152601c60248201527f4552433732313a20746f6b656e20616c7265616479206d696e7465640000000060448201526064016105ec565b6001600160a01b03821660009081526004602052604081208054600192906123b4908490612e57565b909155505060008181526003602052604080822080546001600160a01b0319166001600160a01b03861690811790915590518392907fddf252ad1be2c89b69c2b068fc378daa952ba7f163c4a11628f55a4df523b3ef908290a45050565b82805461241e90612afb565b90600052602060002090601f0160209004810192826124405760008555612486565b82601f1061245957805160ff1916838001178555612486565b82800160010185558215612486579182015b8281111561248657825182559160200191906001019061246b565b50612492929150612496565b5090565b5b808211156124925760008155600101612497565b6001600160e01b0319811681146124c157600080fd5b50565b6000602082840312156124d657600080fd5b81356120a9816124ab565b60005b838110156124fc5781810151838201526020016124e4565b8381111561189e5750506000910152565b600081518084526125258160208601602086016124e1565b601f01601f19169290920160200192915050565b6020815260006120a9602083018461250d565b60006020828403121561255e57600080fd5b5035919050565b80356001600160a01b038116811461257c57600080fd5b919050565b6000806040838503121561259457600080fd5b61259d83612565565b946020939093013593505050565b6000806000606084860312156125c057600080fd5b6125c984612565565b92506125d760208501612565565b9150604084013590509250925092565b634e487b7160e01b600052602160045260246000fd5b8415158152608081016002851061262457634e487b7160e01b600052602160045260246000fd5b84602083015283604083015282606083015295945050505050565b634e487b7160e01b600052604160045260246000fd5b604051601f8201601f1916810167ffffffffffffffff8111828210171561267e5761267e61263f565b604052919050565b600067ffffffffffffffff8311156126a0576126a061263f565b6126b3601f8401601f1916602001612655565b90508281528383830111156126c757600080fd5b828260208301376000602084830101529392505050565b600082601f8301126126ef57600080fd5b6120a983833560208501612686565b600082601f83011261270f57600080fd5b8135602067ffffffffffffffff8083111561272c5761272c61263f565b8260051b61273b838201612655565b938452858101830193838101908886111561275557600080fd5b84880192505b85831015612791578235848111156127735760008081fd5b6127818a87838c01016126de565b835250918401919084019061275b565b98975050505050505050565b8035801515811461257c57600080fd5b60008060008060008060008060006101208a8c0312156127cc57600080fd5b893567ffffffffffffffff808211156127e457600080fd5b6127f08d838e016126fe565b9a5060208c013591508082111561280657600080fd5b6128128d838e016126fe565b995060408c013591508082111561282857600080fd5b6128348d838e016126fe565b985060608c013591508082111561284a57600080fd5b506128578c828d016126fe565b96505061286660808b0161279d565b945061287460a08b0161279d565b935060c08a0135925060e08a013591506101008a013590509295985092959850929598565b600080600080608085870312156128af57600080fd5b843593506128bf6020860161279d565b92506128cd6040860161279d565b9396929550929360600135925050565b6000602082840312156128ef57600080fd5b6120a982612565565b6000806040838503121561290b57600080fd5b61291483612565565b91506129226020840161279d565b90509250929050565b6000806040838503121561293e57600080fd5b8235915061292260208401612565565b60008060008060008060008060006101208a8c03121561296d57600080fd5b893567ffffffffffffffff8082111561298557600080fd5b6129918d838e016126de565b9a5060208c01359150808211156129a757600080fd5b6129b38d838e016126de565b995060408c01359150808211156129c957600080fd5b6129d58d838e016126de565b985060608c01359150808211156129eb57600080fd5b6129f78d838e016126de565b9750612a0560808d0161279d565b9650612a1360a08d0161279d565b955060c08c0135945060e08c013593506101008c0135915080821115612a3857600080fd5b50612a458c828d016126de565b9150509295985092959850929598565b60008060008060808587031215612a6b57600080fd5b612a7485612565565b9350612a8260208601612565565b925060408501359150606085013567ffffffffffffffff811115612aa557600080fd5b8501601f81018713612ab657600080fd5b612ac587823560208401612686565b91505092959194509250565b60008060408385031215612ae457600080fd5b612aed83612565565b915061292260208401612565565b600181811c90821680612b0f57607f821691505b60208210811415612b3057634e487b7160e01b600052602260045260246000fd5b50919050565b60208082526031908201527f4552433732313a207472616e736665722063616c6c6572206973206e6f74206f6040820152701ddb995c881b9bdc88185c1c1c9bdd9959607a1b606082015260800190565b60208082526039908201527f437573746f6d436f6c6c656374696f6e202d3e20746f6b656e496420646f657360408201527f6e277420636f72726573706f6e6420746f20616e79204e465400000000000000606082015260800190565b60208082526027908201527f437573746f6d436f6c6c656374696f6e202d3e2043616c6c6572206973206e666040820152663a1037bbb732b960c91b606082015260800190565b634e487b7160e01b600052601160045260246000fd5b6000816000190483118215151615612c5b57612c5b612c2b565b500290565b634e487b7160e01b600052601260045260246000fd5b600082612c8557612c85612c60565b500490565b600082821015612c9c57612c9c612c2b565b500390565b6001600160a01b039586168152602081019490945260c0604085018190526004908501526314dbdb1960e21b60e08501529184166060840152909216608082015260a08101919091526101000190565b634e487b7160e01b600052603260045260246000fd5b6000600019821415612d1b57612d1b612c2b565b5060010190565b6020808252602b908201527f437573746f6d436f6c6c656374696f6e202d3e2043616c6c6572206973206e6f60408201526a3a1037333a1037bbb732b960a91b606082015260800190565b6020808252602d908201527f437573746f6d436f6c6c656374696f6e202d3e204e465420646f65736e27742060408201526c616c6c6f772062696464696e6760981b606082015260800190565b60018060a01b038716815285602082015260c060408201526000612de160c083018761250d565b8281036060840152612df3818761250d565b90508281036080840152612e07818661250d565b905082810360a0840152612e1b818561250d565b9998505050505050505050565b60008351612e3a8184602088016124e1565b835190830190612e4e8183602088016124e1565b01949350505050565b60008219821115612e6a57612e6a612c2b565b500190565b60208082526032908201527f4552433732313a207472616e7366657220746f206e6f6e20455243373231526560408201527131b2b4bb32b91034b6b83632b6b2b73a32b960711b606082015260800190565b6001600160a01b0385811682528416602082015260408101839052608060608201819052600090612ef49083018461250d565b9695505050505050565b600060208284031215612f1057600080fd5b81516120a9816124ab565b600082612f2a57612f2a612c60565b50069056fe4e6576657220676f6e6e61206769766520796f752075702c204e6576657220676f6e6e61206c657420796f7520646f776ea26469706673582212204c0d7b8aff532513874186b6e686a1ea84a588507b5b262261af652cb5f9ff5e64736f6c634300080a0033",
  "immutableReferences": {},
  "source": "// SPDX-License-Identifier: MIT\r\npragma solidity ^0.8.6;\r\n\r\nimport \"@openzeppelin/contracts/token/ERC721/extensions/ERC721URIStorage.sol\";\r\nimport \"@openzeppelin/contracts/utils/Counters.sol\";\r\nimport \"@openzeppelin/contracts/security/ReentrancyGuard.sol\";\r\nimport \"./Marketplace.sol\";\r\n\r\nenum SellType {\r\n    FixedPrice,\r\n    Bidding\r\n}\r\n\r\ncontract CustomCollection is ReentrancyGuard, ERC721URIStorage {\r\n    // Maintaining a counter of no of nfts in collection\r\n    using Counters for Counters.Counter;\r\n    Counters.Counter private _tokenIds;\r\n\r\n    // Store collection owner/creator\r\n    address payable public creator;\r\n\r\n    // Store collection Metadata\r\n    string collectionMetadataURI;\r\n\r\n    address payable marketPlaceAddress;\r\n\r\n    // On Collection creation\r\n    constructor(\r\n        string memory name_,\r\n        string memory symbol_,\r\n        string memory collectionMetadata_,\r\n        address creator_\r\n    ) ERC721(name_, symbol_) {\r\n        creator = payable(creator_);\r\n\r\n        marketPlaceAddress = payable(msg.sender);\r\n\r\n        collectionMetadataURI = collectionMetadata_;\r\n    }\r\n\r\n    // ** NFT ** //\r\n\r\n    // Required NFT data in contract\r\n    struct NFT {\r\n        bool forSale;\r\n        SellType sellType;\r\n        uint256 price;\r\n        uint256 royalty;\r\n    }\r\n\r\n    // To store nfts (tokenId => NFT)\r\n    mapping(uint256 => NFT) public nfts;\r\n\r\n    // To store bids (tokenId => (address => price))\r\n    mapping(uint256 => mapping(address => uint256)) bids;\r\n\r\n    // tokenId to secret\r\n    mapping(uint256 => string) unlockableContent;\r\n\r\n    // On minting of Nft\r\n    event NFTCreated(\r\n        address cAddress,\r\n        uint256 tokenId,\r\n        string name,\r\n        string image,\r\n        string properties,\r\n        string metadata\r\n    );\r\n\r\n    // On mint/transfer/sale of nft\r\n    event NFTEvent(\r\n        address cAddress,\r\n        uint256 tokenId,\r\n        string eventType,\r\n        address from,\r\n        address to,\r\n        uint256 price\r\n    );\r\n\r\n    // On bid placed\r\n    event BidPlaced(\r\n        address cAddress,\r\n        uint256 tokenId,\r\n        address from,\r\n        uint256 price\r\n    );\r\n\r\n    // On bid canceled\r\n    event BidCanceled(address cAddress, uint256 tokenId, address from);\r\n\r\n    // Checks if tokenId exists\r\n    modifier tokenExists(uint256 tokenId) {\r\n        require(\r\n            tokenId <= _tokenIds.current(),\r\n            \"CustomCollection -> tokenId doesn't correspond to any NFT\"\r\n        );\r\n        _;\r\n    }\r\n\r\n    // Checks if owner of tokenId is caller\r\n    modifier callerIsNftOwner(uint256 tokenId) {\r\n        // Only owner of token can access secret\r\n        require(\r\n            msg.sender == ownerOf(tokenId),\r\n            \"CustomCollection -> Caller is not nft owner\"\r\n        );\r\n        _;\r\n    }\r\n\r\n    // Checks if owner of tokenId is not caller\r\n    modifier callerIsNotNftOwner(uint256 tokenId) {\r\n        // Only owner of token can access secret\r\n        require(\r\n            msg.sender != ownerOf(tokenId),\r\n            \"CustomCollection -> Caller is nft owner\"\r\n        );\r\n        _;\r\n    }\r\n\r\n    // Checks if NFT is listed for bids\r\n    modifier isBiddable(uint256 tokenId) {\r\n        require(\r\n            nfts[tokenId].sellType == SellType.Bidding,\r\n            \"CustomCollection -> NFT doesn't allow bidding\"\r\n        );\r\n        _;\r\n    }\r\n\r\n    // List NFT on Marketplace\r\n    function mintNFT(\r\n        string memory name_,\r\n        string memory image_,\r\n        string memory properties_,\r\n        string memory metadata_,\r\n        bool forSale_,\r\n        bool isFixedPrice_,\r\n        uint256 price_,\r\n        uint256 royalty_,\r\n        string memory unlockableString_\r\n    ) public {\r\n        require(\r\n            msg.sender == creator,\r\n            \"CustomCollection : mintToken -> Not collection owner\"\r\n        );\r\n\r\n        _tokenIds.increment();\r\n        uint256 tokenId = _tokenIds.current();\r\n\r\n        // ERC721 Mint\r\n        _safeMint(msg.sender, tokenId);\r\n\r\n        // ERC721 set Metadata\r\n        _setTokenURI(tokenId, metadata_);\r\n\r\n        // In case of bidding nft transfer is called by owner of nft\r\n        // But for fixed price nft transfer can be only done by marketplace\r\n        if (isFixedPrice_) {\r\n            // ERC721 approve marketplace to manage owner's current token\r\n            approve(marketPlaceAddress, tokenId);\r\n        }\r\n\r\n        // Set unlockableContent\r\n        unlockableContent[tokenId] = unlockableString_;\r\n\r\n        // Store nft in marketplace\r\n        nfts[tokenId] = NFT({\r\n            forSale: forSale_,\r\n            sellType: isFixedPrice_ ? SellType.FixedPrice : SellType.Bidding,\r\n            price: price_,\r\n            royalty: royalty_\r\n        });\r\n\r\n        // Log events to subgraph\r\n        emit NFTCreated(\r\n            address(this),\r\n            tokenId,\r\n            name_,\r\n            image_,\r\n            properties_,\r\n            metadata_\r\n        );\r\n\r\n        emit NFTEvent(\r\n            address(this),\r\n            tokenId,\r\n            \"Minted\",\r\n            address(0),\r\n            msg.sender,\r\n            0\r\n        );\r\n    }\r\n\r\n    // Buy Fixed Price NFT\r\n    function buyFixedPriceNFT(uint256 tokenId)\r\n        public\r\n        payable\r\n        nonReentrant\r\n        tokenExists(tokenId)\r\n        callerIsNotNftOwner(tokenId)\r\n    {\r\n        NFT memory nft = nfts[tokenId];\r\n\r\n        require(\r\n            nft.sellType == SellType.FixedPrice,\r\n            \"CustomCollection : placeBid -> NFT is listed for bids only\"\r\n        );\r\n        require(\r\n            nft.forSale,\r\n            \"CustomCollection : buyFixedPriceNFT -> NFT is not for sale\"\r\n        );\r\n        require(\r\n            msg.value == nft.price,\r\n            \"CustomCollection : buyFixedPriceNFT -> Please send exact amount as price\"\r\n        );\r\n\r\n        // Tranfer eth to creator as royalty\r\n        creator.transfer(((nft.price * nft.royalty) / 100));\r\n\r\n        // Marketplace gets 0% commission\r\n        // marketPlaceAddress.transfer(nft.price / 100);\r\n\r\n        // Tranfer remaining eth to current owner\r\n        payable(ownerOf(tokenId)).transfer(\r\n            (nft.price * (100 - nft.royalty - 1)) / 100\r\n        );\r\n\r\n        // Transfer nft to msg.sender\r\n        Marketplace(marketPlaceAddress).marketPlaceTransferFrom(\r\n            address(this),\r\n            ownerOf(tokenId),\r\n            msg.sender,\r\n            tokenId\r\n        );\r\n\r\n        // New owner has to approve marketplace to manage his token\r\n        approve(marketPlaceAddress, tokenId);\r\n\r\n        // Unlist item\r\n        nfts[tokenId].forSale = false;\r\n\r\n        // Log event to subgraph\r\n        emit NFTEvent(\r\n            address(this),\r\n            tokenId,\r\n            \"Sold\",\r\n            ownerOf(tokenId),\r\n            msg.sender,\r\n            nft.price / 1e12\r\n        );\r\n    }\r\n\r\n    // Places bid. Recieves eth from user which are held by the contract\r\n    function placeBid(uint256 tokenId)\r\n        public\r\n        payable\r\n        tokenExists(tokenId)\r\n        callerIsNotNftOwner(tokenId)\r\n        isBiddable(tokenId)\r\n    {\r\n        require(\r\n            bids[tokenId][msg.sender] == 0,\r\n            \"CustomCollection : placeBid -> Can't bid twice. Cancel Previous bid\"\r\n        );\r\n        require(\r\n            msg.value >= nfts[tokenId].price,\r\n            \"CustomCollection : placeBid -> Can't bid lower than nft's minimum price\"\r\n        );\r\n\r\n        // Add bid on chain\r\n        bids[tokenId][msg.sender] = msg.value;\r\n\r\n        // Log event to subgraph\r\n        emit BidPlaced(address(this), tokenId, msg.sender, msg.value / 1e12);\r\n    }\r\n\r\n    // Cancels bid\r\n    function cancelBid(uint256 tokenId)\r\n        public\r\n        tokenExists(tokenId)\r\n        isBiddable(tokenId)\r\n    {\r\n        require(\r\n            bids[tokenId][msg.sender] != 0,\r\n            \"CustomCollection -> No bid by caller\"\r\n        );\r\n\r\n        uint256 bidAmount = bids[tokenId][msg.sender];\r\n\r\n        // Remove bid on chain\r\n        bids[tokenId][msg.sender] = 0;\r\n\r\n        // Transfer bidder's eth back\r\n        payable(msg.sender).transfer(bidAmount);\r\n\r\n        // Log event to subgraph\r\n        emit BidCanceled(address(this), tokenId, msg.sender);\r\n    }\r\n\r\n    // Sell NFT to a bidder\r\n    function sellBiddingNFT(uint256 tokenId, address to_)\r\n        public\r\n        nonReentrant\r\n        tokenExists(tokenId)\r\n        callerIsNftOwner(tokenId)\r\n        isBiddable(tokenId)\r\n    {\r\n        require(\r\n            bids[tokenId][to_] != 0,\r\n            \"CustomCollection -> No bid by user 'to_'\"\r\n        );\r\n\r\n        // Tranfer eth to creator as royalty\r\n        creator.transfer(((bids[tokenId][to_] * nfts[tokenId].royalty) / 100));\r\n\r\n        // Marketplace gets 0% commission\r\n        // marketPlaceAddress.transfer(bids[tokenId][to_] / 100);\r\n\r\n        // Tranfer remaining eth to current owner\r\n        payable(ownerOf(tokenId)).transfer(\r\n            (bids[tokenId][to_] * (100 - nfts[tokenId].royalty - 1)) / 100\r\n        );\r\n\r\n        // Transfer nft to msg.sender\r\n        safeTransferFrom(msg.sender, to_, tokenId);\r\n\r\n        // Log event to subgraph\r\n        emit NFTEvent(\r\n            address(this),\r\n            tokenId,\r\n            \"Sold\",\r\n            ownerOf(tokenId),\r\n            to_,\r\n            bids[tokenId][to_] / 1e12\r\n        );\r\n\r\n        emit BidCanceled(address(this), tokenId, to_);\r\n    }\r\n\r\n    // Get unlockable content to owner of nft\r\n    function getUnlockableContent(uint256 tokenId)\r\n        public\r\n        view\r\n        tokenExists(tokenId)\r\n        callerIsNftOwner(tokenId)\r\n        returns (string memory)\r\n    {\r\n        return unlockableContent[tokenId];\r\n    }\r\n\r\n    // Modify listing mechanism\r\n    function modifyListingMechanism(\r\n        uint256 tokenId,\r\n        bool setFixPrice,\r\n        bool forSale,\r\n        uint256 newPrice\r\n    )\r\n        public\r\n        // address[] memory bidders\r\n        tokenExists(tokenId)\r\n        callerIsNftOwner(tokenId)\r\n    {\r\n        // For fixed price tokens\r\n        if (nfts[tokenId].sellType == SellType.FixedPrice) {\r\n            if (!setFixPrice) {\r\n                // Convert to bidding and change price\r\n                nfts[tokenId].sellType = SellType.Bidding;\r\n                nfts[tokenId].price = newPrice;\r\n            } else {\r\n                // Change price and forSale status\r\n                nfts[tokenId].forSale = forSale;\r\n                nfts[tokenId].price = newPrice;\r\n            }\r\n        }\r\n        // For bidding tokens\r\n        // else {\r\n        //     if(setFixPrice) {\r\n        //         // Convert to fixed price and change price, forSale\r\n        //         nfts[tokenId].sellType = SellType.FixedPrice;\r\n        //         nfts[tokenId].forSale = forSale;\r\n        //         nfts[tokenId].price = newPrice;\r\n\r\n        //         // Approve marketplace to trade this token\r\n        //         approve(marketPlaceAddress, tokenId);\r\n\r\n        //         // Cancel all bids, Return their money, emit events\r\n        //         for(uint i=0; i<bidders.length; i++) {\r\n        //             // Transfer bidder's eth back\r\n        //             payable(bidders[i]).transfer(bids[tokenId][bidders[i]]);\r\n\r\n        //             // Remove bid on chain\r\n        //             bids[tokenId][bidders[i]] = 0;\r\n\r\n        //             // Log event to subgraph\r\n        //             emit BidCanceled(address(this), tokenId, bidders[i]);\r\n        //         }\r\n\r\n        //     } else {\r\n        //         // Change minimum price\r\n        //         nfts[tokenId].price = newPrice;\r\n        //     }\r\n        // }\r\n    }\r\n\r\n    function mintBatch(\r\n        string[] memory names,\r\n        string[] memory images,\r\n        string[] memory properties,\r\n        string[] memory metadatas,\r\n        bool forSale_,\r\n        bool isFixedPrice_,\r\n        uint256 price_,\r\n        uint256 royalty_,\r\n        uint256 nItems\r\n    ) public {\r\n        for (uint256 i = 0; i < nItems; i++) {\r\n            mintNFT(\r\n                names[i],\r\n                images[i],\r\n                properties[i],\r\n                metadatas[i],\r\n                forSale_,\r\n                isFixedPrice_,\r\n                price_,\r\n                royalty_,\r\n                \"Never gonna give you up, Never gonna let you down\"\r\n            );\r\n        }\r\n    }\r\n}\r\n",
  "sourcePath": "F:\\ethdev\\generative-nft\\contracts\\CustomCollection.sol",
  "compiler": {
    "name": "solc",
    "version": "0.8.10+commit.fc410830.Emscripten.clang"
  },
  "schemaVersion": "3.4.3",
  "updatedAt": "2021-12-12T09:39:43.754Z",
  "devdoc": {
    "kind": "dev",
    "methods": {
      "approve(address,uint256)": {
        "details": "See {IERC721-approve}."
      },
      "balanceOf(address)": {
        "details": "See {IERC721-balanceOf}."
      },
      "getApproved(uint256)": {
        "details": "See {IERC721-getApproved}."
      },
      "isApprovedForAll(address,address)": {
        "details": "See {IERC721-isApprovedForAll}."
      },
      "name()": {
        "details": "See {IERC721Metadata-name}."
      },
      "ownerOf(uint256)": {
        "details": "See {IERC721-ownerOf}."
      },
      "safeTransferFrom(address,address,uint256)": {
        "details": "See {IERC721-safeTransferFrom}."
      },
      "safeTransferFrom(address,address,uint256,bytes)": {
        "details": "See {IERC721-safeTransferFrom}."
      },
      "setApprovalForAll(address,bool)": {
        "details": "See {IERC721-setApprovalForAll}."
      },
      "supportsInterface(bytes4)": {
        "details": "See {IERC165-supportsInterface}."
      },
      "symbol()": {
        "details": "See {IERC721Metadata-symbol}."
      },
      "tokenURI(uint256)": {
        "details": "See {IERC721Metadata-tokenURI}."
      },
      "transferFrom(address,address,uint256)": {
        "details": "See {IERC721-transferFrom}."
      }
    },
    "version": 1
  },
  "userdoc": {
    "kind": "user",
    "methods": {},
    "version": 1
  }
}