{
  "contractName": "CustomCollection",
  "abi": [
    {
      "inputs": [
        {
          "internalType": "string",
          "name": "name_",
          "type": "string"
        },
        {
          "internalType": "string",
          "name": "symbol_",
          "type": "string"
        },
        {
          "internalType": "string",
          "name": "collectionMetadata_",
          "type": "string"
        },
        {
          "internalType": "address",
          "name": "creator_",
          "type": "address"
        }
      ],
      "stateMutability": "nonpayable",
      "type": "constructor"
    },
    {
      "anonymous": false,
      "inputs": [
        {
          "indexed": true,
          "internalType": "address",
          "name": "owner",
          "type": "address"
        },
        {
          "indexed": true,
          "internalType": "address",
          "name": "approved",
          "type": "address"
        },
        {
          "indexed": true,
          "internalType": "uint256",
          "name": "tokenId",
          "type": "uint256"
        }
      ],
      "name": "Approval",
      "type": "event"
    },
    {
      "anonymous": false,
      "inputs": [
        {
          "indexed": true,
          "internalType": "address",
          "name": "owner",
          "type": "address"
        },
        {
          "indexed": true,
          "internalType": "address",
          "name": "operator",
          "type": "address"
        },
        {
          "indexed": false,
          "internalType": "bool",
          "name": "approved",
          "type": "bool"
        }
      ],
      "name": "ApprovalForAll",
      "type": "event"
    },
    {
      "anonymous": false,
      "inputs": [
        {
          "indexed": false,
          "internalType": "address",
          "name": "cAddress",
          "type": "address"
        },
        {
          "indexed": false,
          "internalType": "uint256",
          "name": "tokenId",
          "type": "uint256"
        },
        {
          "indexed": false,
          "internalType": "address",
          "name": "from",
          "type": "address"
        }
      ],
      "name": "BidCanceled",
      "type": "event"
    },
    {
      "anonymous": false,
      "inputs": [
        {
          "indexed": false,
          "internalType": "address",
          "name": "cAddress",
          "type": "address"
        },
        {
          "indexed": false,
          "internalType": "uint256",
          "name": "tokenId",
          "type": "uint256"
        },
        {
          "indexed": false,
          "internalType": "address",
          "name": "from",
          "type": "address"
        },
        {
          "indexed": false,
          "internalType": "uint256",
          "name": "price",
          "type": "uint256"
        }
      ],
      "name": "BidPlaced",
      "type": "event"
    },
    {
      "anonymous": false,
      "inputs": [
        {
          "indexed": false,
          "internalType": "address",
          "name": "cAddress",
          "type": "address"
        },
        {
          "indexed": false,
          "internalType": "uint256",
          "name": "tokenId",
          "type": "uint256"
        },
        {
          "indexed": false,
          "internalType": "string",
          "name": "name",
          "type": "string"
        },
        {
          "indexed": false,
          "internalType": "string",
          "name": "image",
          "type": "string"
        },
        {
          "indexed": false,
          "internalType": "string",
          "name": "properties",
          "type": "string"
        },
        {
          "indexed": false,
          "internalType": "string",
          "name": "metadata",
          "type": "string"
        }
      ],
      "name": "NFTCreated",
      "type": "event"
    },
    {
      "anonymous": false,
      "inputs": [
        {
          "indexed": false,
          "internalType": "address",
          "name": "cAddress",
          "type": "address"
        },
        {
          "indexed": false,
          "internalType": "uint256",
          "name": "tokenId",
          "type": "uint256"
        },
        {
          "indexed": false,
          "internalType": "string",
          "name": "eventType",
          "type": "string"
        },
        {
          "indexed": false,
          "internalType": "address",
          "name": "from",
          "type": "address"
        },
        {
          "indexed": false,
          "internalType": "address",
          "name": "to",
          "type": "address"
        },
        {
          "indexed": false,
          "internalType": "uint256",
          "name": "price",
          "type": "uint256"
        }
      ],
      "name": "NFTEvent",
      "type": "event"
    },
    {
      "anonymous": false,
      "inputs": [
        {
          "indexed": true,
          "internalType": "address",
          "name": "from",
          "type": "address"
        },
        {
          "indexed": true,
          "internalType": "address",
          "name": "to",
          "type": "address"
        },
        {
          "indexed": true,
          "internalType": "uint256",
          "name": "tokenId",
          "type": "uint256"
        }
      ],
      "name": "Transfer",
      "type": "event"
    },
    {
      "inputs": [
        {
          "internalType": "address",
          "name": "to",
          "type": "address"
        },
        {
          "internalType": "uint256",
          "name": "tokenId",
          "type": "uint256"
        }
      ],
      "name": "approve",
      "outputs": [],
      "stateMutability": "nonpayable",
      "type": "function"
    },
    {
      "inputs": [
        {
          "internalType": "address",
          "name": "owner",
          "type": "address"
        }
      ],
      "name": "balanceOf",
      "outputs": [
        {
          "internalType": "uint256",
          "name": "",
          "type": "uint256"
        }
      ],
      "stateMutability": "view",
      "type": "function"
    },
    {
      "inputs": [],
      "name": "creator",
      "outputs": [
        {
          "internalType": "address payable",
          "name": "",
          "type": "address"
        }
      ],
      "stateMutability": "view",
      "type": "function"
    },
    {
      "inputs": [
        {
          "internalType": "uint256",
          "name": "tokenId",
          "type": "uint256"
        }
      ],
      "name": "getApproved",
      "outputs": [
        {
          "internalType": "address",
          "name": "",
          "type": "address"
        }
      ],
      "stateMutability": "view",
      "type": "function"
    },
    {
      "inputs": [
        {
          "internalType": "address",
          "name": "owner",
          "type": "address"
        },
        {
          "internalType": "address",
          "name": "operator",
          "type": "address"
        }
      ],
      "name": "isApprovedForAll",
      "outputs": [
        {
          "internalType": "bool",
          "name": "",
          "type": "bool"
        }
      ],
      "stateMutability": "view",
      "type": "function"
    },
    {
      "inputs": [],
      "name": "name",
      "outputs": [
        {
          "internalType": "string",
          "name": "",
          "type": "string"
        }
      ],
      "stateMutability": "view",
      "type": "function"
    },
    {
      "inputs": [
        {
          "internalType": "uint256",
          "name": "",
          "type": "uint256"
        }
      ],
      "name": "nfts",
      "outputs": [
        {
          "internalType": "bool",
          "name": "forSale",
          "type": "bool"
        },
        {
          "internalType": "enum SellType",
          "name": "sellType",
          "type": "uint8"
        },
        {
          "internalType": "uint256",
          "name": "price",
          "type": "uint256"
        },
        {
          "internalType": "uint256",
          "name": "royalty",
          "type": "uint256"
        }
      ],
      "stateMutability": "view",
      "type": "function"
    },
    {
      "inputs": [
        {
          "internalType": "uint256",
          "name": "tokenId",
          "type": "uint256"
        }
      ],
      "name": "ownerOf",
      "outputs": [
        {
          "internalType": "address",
          "name": "",
          "type": "address"
        }
      ],
      "stateMutability": "view",
      "type": "function"
    },
    {
      "inputs": [
        {
          "internalType": "address",
          "name": "from",
          "type": "address"
        },
        {
          "internalType": "address",
          "name": "to",
          "type": "address"
        },
        {
          "internalType": "uint256",
          "name": "tokenId",
          "type": "uint256"
        }
      ],
      "name": "safeTransferFrom",
      "outputs": [],
      "stateMutability": "nonpayable",
      "type": "function"
    },
    {
      "inputs": [
        {
          "internalType": "address",
          "name": "from",
          "type": "address"
        },
        {
          "internalType": "address",
          "name": "to",
          "type": "address"
        },
        {
          "internalType": "uint256",
          "name": "tokenId",
          "type": "uint256"
        },
        {
          "internalType": "bytes",
          "name": "_data",
          "type": "bytes"
        }
      ],
      "name": "safeTransferFrom",
      "outputs": [],
      "stateMutability": "nonpayable",
      "type": "function"
    },
    {
      "inputs": [
        {
          "internalType": "address",
          "name": "operator",
          "type": "address"
        },
        {
          "internalType": "bool",
          "name": "approved",
          "type": "bool"
        }
      ],
      "name": "setApprovalForAll",
      "outputs": [],
      "stateMutability": "nonpayable",
      "type": "function"
    },
    {
      "inputs": [
        {
          "internalType": "bytes4",
          "name": "interfaceId",
          "type": "bytes4"
        }
      ],
      "name": "supportsInterface",
      "outputs": [
        {
          "internalType": "bool",
          "name": "",
          "type": "bool"
        }
      ],
      "stateMutability": "view",
      "type": "function"
    },
    {
      "inputs": [],
      "name": "symbol",
      "outputs": [
        {
          "internalType": "string",
          "name": "",
          "type": "string"
        }
      ],
      "stateMutability": "view",
      "type": "function"
    },
    {
      "inputs": [
        {
          "internalType": "uint256",
          "name": "tokenId",
          "type": "uint256"
        }
      ],
      "name": "tokenURI",
      "outputs": [
        {
          "internalType": "string",
          "name": "",
          "type": "string"
        }
      ],
      "stateMutability": "view",
      "type": "function"
    },
    {
      "inputs": [
        {
          "internalType": "address",
          "name": "from",
          "type": "address"
        },
        {
          "internalType": "address",
          "name": "to",
          "type": "address"
        },
        {
          "internalType": "uint256",
          "name": "tokenId",
          "type": "uint256"
        }
      ],
      "name": "transferFrom",
      "outputs": [],
      "stateMutability": "nonpayable",
      "type": "function"
    },
    {
      "inputs": [
        {
          "internalType": "string",
          "name": "name_",
          "type": "string"
        },
        {
          "internalType": "string",
          "name": "image_",
          "type": "string"
        },
        {
          "internalType": "string",
          "name": "properties_",
          "type": "string"
        },
        {
          "internalType": "string",
          "name": "metadata_",
          "type": "string"
        },
        {
          "internalType": "bool",
          "name": "forSale_",
          "type": "bool"
        },
        {
          "internalType": "bool",
          "name": "isFixedPrice_",
          "type": "bool"
        },
        {
          "internalType": "uint256",
          "name": "price_",
          "type": "uint256"
        },
        {
          "internalType": "uint256",
          "name": "royalty_",
          "type": "uint256"
        },
        {
          "internalType": "string",
          "name": "unlockableString_",
          "type": "string"
        }
      ],
      "name": "mintNFT",
      "outputs": [],
      "stateMutability": "nonpayable",
      "type": "function"
    },
    {
      "inputs": [
        {
          "internalType": "string[]",
          "name": "names",
          "type": "string[]"
        },
        {
          "internalType": "string[]",
          "name": "images",
          "type": "string[]"
        },
        {
          "internalType": "string[]",
          "name": "properties",
          "type": "string[]"
        },
        {
          "internalType": "string[]",
          "name": "metadatas",
          "type": "string[]"
        },
        {
          "internalType": "bool",
          "name": "forSale_",
          "type": "bool"
        },
        {
          "internalType": "bool",
          "name": "isFixedPrice_",
          "type": "bool"
        },
        {
          "internalType": "uint256",
          "name": "price_",
          "type": "uint256"
        },
        {
          "internalType": "uint256",
          "name": "royalty_",
          "type": "uint256"
        },
        {
          "internalType": "uint256",
          "name": "nItems",
          "type": "uint256"
        }
      ],
      "name": "mintBatch",
      "outputs": [],
      "stateMutability": "nonpayable",
      "type": "function"
    },
    {
      "inputs": [
        {
          "internalType": "uint256",
          "name": "tokenId",
          "type": "uint256"
        }
      ],
      "name": "buyFixedPriceNFT",
      "outputs": [],
      "stateMutability": "payable",
      "type": "function"
    },
    {
      "inputs": [
        {
          "internalType": "uint256",
          "name": "tokenId",
          "type": "uint256"
        }
      ],
      "name": "placeBid",
      "outputs": [],
      "stateMutability": "payable",
      "type": "function"
    },
    {
      "inputs": [
        {
          "internalType": "uint256",
          "name": "tokenId",
          "type": "uint256"
        }
      ],
      "name": "cancelBid",
      "outputs": [],
      "stateMutability": "nonpayable",
      "type": "function"
    },
    {
      "inputs": [
        {
          "internalType": "uint256",
          "name": "tokenId",
          "type": "uint256"
        },
        {
          "internalType": "address",
          "name": "to_",
          "type": "address"
        }
      ],
      "name": "sellBiddingNFT",
      "outputs": [],
      "stateMutability": "nonpayable",
      "type": "function"
    },
    {
      "inputs": [
        {
          "internalType": "uint256",
          "name": "tokenId",
          "type": "uint256"
        }
      ],
      "name": "getUnlockableContent",
      "outputs": [
        {
          "internalType": "string",
          "name": "",
          "type": "string"
        }
      ],
      "stateMutability": "view",
      "type": "function"
    },
    {
      "inputs": [
        {
          "internalType": "uint256",
          "name": "tokenId",
          "type": "uint256"
        },
        {
          "internalType": "bool",
          "name": "setFixPrice",
          "type": "bool"
        },
        {
          "internalType": "bool",
          "name": "forSale",
          "type": "bool"
        },
        {
          "internalType": "uint256",
          "name": "newPrice",
          "type": "uint256"
        }
      ],
      "name": "modifyListingMechanism",
      "outputs": [],
      "stateMutability": "nonpayable",
      "type": "function"
    }
  ],
  "bytecode": "0x60806040523480156200001157600080fd5b50604051620032a5380380620032a5833981016040819052620000349162000227565b600160008190558451859185916200005291906020850190620000b4565b50805162000068906002906020840190620000b4565b5050600980546001600160a01b0384166001600160a01b031991821617909155600b805490911633179055508151620000a990600a906020850190620000b4565b505050505062000317565b828054620000c290620002da565b90600052602060002090601f016020900481019282620000e6576000855562000131565b82601f106200010157805160ff191683800117855562000131565b8280016001018555821562000131579182015b828111156200013157825182559160200191906001019062000114565b506200013f92915062000143565b5090565b5b808211156200013f576000815560010162000144565b634e487b7160e01b600052604160045260246000fd5b600082601f8301126200018257600080fd5b81516001600160401b03808211156200019f576200019f6200015a565b604051601f8301601f19908116603f01168101908282118183101715620001ca57620001ca6200015a565b81604052838152602092508683858801011115620001e757600080fd5b600091505b838210156200020b5785820183015181830184015290820190620001ec565b838211156200021d5760008385830101525b9695505050505050565b600080600080608085870312156200023e57600080fd5b84516001600160401b03808211156200025657600080fd5b620002648883890162000170565b955060208701519150808211156200027b57600080fd5b620002898883890162000170565b94506040870151915080821115620002a057600080fd5b50620002af8782880162000170565b606087015190935090506001600160a01b0381168114620002cf57600080fd5b939692955090935050565b600181811c90821680620002ef57607f821691505b602082108114156200031157634e487b7160e01b600052602260045260246000fd5b50919050565b612f7e80620003276000396000f3fe6080604052600436106101405760003560e01c80636fe04294116100b6578063af345ec61161006f578063af345ec6146103b7578063afc7fbd5146103d7578063b88d4fde146103f7578063c87b56dd14610417578063e985e9c514610437578063fe4867121461048057600080fd5b80636fe042941461030157806370a082311461032157806395d89b411461034f5780639703ef35146103645780639979ef4514610384578063a22cb4651461039757600080fd5b806323b872dd1161010857806323b872dd14610216578063265aa621146102365780632af6c4481461028e57806342842e0e146102a15780636352211e146102c15780636c4026a4146102e157600080fd5b806301ffc9a71461014557806302d05d3f1461017a57806306fdde03146101b2578063081812fc146101d4578063095ea7b3146101f4575b600080fd5b34801561015157600080fd5b506101656101603660046124ac565b6104a0565b60405190151581526020015b60405180910390f35b34801561018657600080fd5b5060095461019a906001600160a01b031681565b6040516001600160a01b039091168152602001610171565b3480156101be57600080fd5b506101c76104f2565b6040516101719190612521565b3480156101e057600080fd5b5061019a6101ef366004612534565b610584565b34801561020057600080fd5b5061021461020f366004612569565b610611565b005b34801561022257600080fd5b50610214610231366004612593565b610727565b34801561024257600080fd5b5061027e610251366004612534565b600c6020526000908152604090208054600182015460029092015460ff8083169361010090930416919084565b60405161017194939291906125e5565b61021461029c366004612534565b610758565b3480156102ad57600080fd5b506102146102bc366004612593565b610bef565b3480156102cd57600080fd5b5061019a6102dc366004612534565b610c0a565b3480156102ed57600080fd5b506102146102fc366004612795565b610c81565b34801561030d57600080fd5b5061021461031c366004612881565b610d37565b34801561032d57600080fd5b5061034161033c3660046128c5565b610e1d565b604051908152602001610171565b34801561035b57600080fd5b506101c7610ea4565b34801561037057600080fd5b5061021461037f366004612534565b610eb3565b610214610392366004612534565b61102b565b3480156103a357600080fd5b506102146103b23660046128e0565b611292565b3480156103c357600080fd5b506102146103d2366004612913565b6112a1565b3480156103e357600080fd5b506102146103f2366004612936565b61160f565b34801561040357600080fd5b50610214610412366004612a3d565b611854565b34801561042357600080fd5b506101c7610432366004612534565b61188c565b34801561044357600080fd5b50610165610452366004612ab9565b6001600160a01b03918216600090815260066020908152604080832093909416825291909152205460ff1690565b34801561048c57600080fd5b506101c761049b366004612534565b611a03565b60006001600160e01b031982166380ac58cd60e01b14806104d157506001600160e01b03198216635b5e139f60e01b145b806104ec57506301ffc9a760e01b6001600160e01b03198316145b92915050565b60606001805461050190612ae3565b80601f016020809104026020016040519081016040528092919081815260200182805461052d90612ae3565b801561057a5780601f1061054f5761010080835404028352916020019161057a565b820191906000526020600020905b81548152906001019060200180831161055d57829003601f168201915b5050505050905090565b600061058f82611b08565b6105f55760405162461bcd60e51b815260206004820152602c60248201527f4552433732313a20617070726f76656420717565727920666f72206e6f6e657860448201526b34b9ba32b73a103a37b5b2b760a11b60648201526084015b60405180910390fd5b506000908152600560205260409020546001600160a01b031690565b600061061c82610c0a565b9050806001600160a01b0316836001600160a01b0316141561068a5760405162461bcd60e51b815260206004820152602160248201527f4552433732313a20617070726f76616c20746f2063757272656e74206f776e656044820152603960f91b60648201526084016105ec565b336001600160a01b03821614806106a657506106a68133610452565b6107185760405162461bcd60e51b815260206004820152603860248201527f4552433732313a20617070726f76652063616c6c6572206973206e6f74206f7760448201527f6e6572206e6f7220617070726f76656420666f7220616c6c000000000000000060648201526084016105ec565b6107228383611b25565b505050565b6107313382611b93565b61074d5760405162461bcd60e51b81526004016105ec90612b1e565b610722838383611c79565b600260005414156107ab5760405162461bcd60e51b815260206004820152601f60248201527f5265656e7472616e637947756172643a207265656e7472616e742063616c6c0060448201526064016105ec565b6002600055806107ba60085490565b8111156107d95760405162461bcd60e51b81526004016105ec90612b6f565b816107e381610c0a565b6001600160a01b0316336001600160a01b031614156108145760405162461bcd60e51b81526004016105ec90612bcc565b6000838152600c60209081526040808320815160808101909252805460ff808216151584529293919291840191610100909104166001811115610859576108596125cf565b600181111561086a5761086a6125cf565b815260018201546020820152600290910154604090910152905060008160200151600181111561089c5761089c6125cf565b1461090f5760405162461bcd60e51b815260206004820152603a60248201527f437573746f6d436f6c6c656374696f6e203a20706c616365426964202d3e204e60448201527f4654206973206c697374656420666f722062696473206f6e6c7900000000000060648201526084016105ec565b80516109835760405162461bcd60e51b815260206004820152603a60248201527f437573746f6d436f6c6c656374696f6e203a206275794669786564507269636560448201527f4e4654202d3e204e4654206973206e6f7420666f722073616c6500000000000060648201526084016105ec565b80604001513414610a0d5760405162461bcd60e51b815260206004820152604860248201527f437573746f6d436f6c6c656374696f6e203a206275794669786564507269636560448201527f4e4654202d3e20506c656173652073656e6420657861637420616d6f756e7420606482015267617320707269636560c01b608482015260a4016105ec565b600954606082015160408301516001600160a01b03909216916108fc91606491610a379190612c29565b610a419190612c5e565b6040518115909202916000818181858888f19350505050158015610a69573d6000803e3d6000fd5b50610a7384610c0a565b6001600160a01b03166108fc606483606001516064610a929190612c72565b8460400151610aa19190612c29565b610aab9190612c5e565b6040518115909202916000818181858888f19350505050158015610ad3573d6000803e3d6000fd5b50600b546001600160a01b031663c63d15fd30610aef87610c0a565b6040516001600160e01b031960e085901b1681526001600160a01b0392831660048201529116602482015233604482015260648101879052608401600060405180830381600087803b158015610b4457600080fd5b505af1158015610b58573d6000803e3d6000fd5b5050600b54610b7392506001600160a01b0316905085610611565b6000848152600c60205260409020805460ff191690557fd150b62f2313c33b378415934acdff9ca2554598f9325710306b1c3e274b741b3085610bb581610c0a565b3364e8d4a510008660400151610bcb9190612c5e565b604051610bdc959493929190612c89565b60405180910390a1505060016000555050565b61072283838360405180602001604052806000815250611854565b6000818152600360205260408120546001600160a01b0316806104ec5760405162461bcd60e51b815260206004820152602960248201527f4552433732313a206f776e657220717565727920666f72206e6f6e657869737460448201526832b73a103a37b5b2b760b91b60648201526084016105ec565b60005b81811015610d2b57610d198a8281518110610ca157610ca1612cd9565b60200260200101518a8381518110610cbb57610cbb612cd9565b60200260200101518a8481518110610cd557610cd5612cd9565b60200260200101518a8581518110610cef57610cef612cd9565b60200260200101518a8a8a8a604051806060016040528060318152602001612f186031913961160f565b80610d2381612cef565b915050610c84565b50505050505050505050565b83610d4160085490565b811115610d605760405162461bcd60e51b81526004016105ec90612b6f565b84610d6a81610c0a565b6001600160a01b0316336001600160a01b031614610d9a5760405162461bcd60e51b81526004016105ec90612d0a565b600080878152600c6020526040902054610100900460ff166001811115610dc357610dc36125cf565b1415610e155784610df4576000868152600c60205260409020805461ff001916610100178155600101839055610e15565b6000868152600c60205260409020805460ff19168515151781556001018390555b505050505050565b60006001600160a01b038216610e885760405162461bcd60e51b815260206004820152602a60248201527f4552433732313a2062616c616e636520717565727920666f7220746865207a65604482015269726f206164647265737360b01b60648201526084016105ec565b506001600160a01b031660009081526004602052604090205490565b60606002805461050190612ae3565b80610ebd60085490565b811115610edc5760405162461bcd60e51b81526004016105ec90612b6f565b8160016000828152600c6020526040902054610100900460ff166001811115610f0757610f076125cf565b14610f245760405162461bcd60e51b81526004016105ec90612d55565b6000838152600d60209081526040808320338452909152902054610f965760405162461bcd60e51b8152602060048201526024808201527f437573746f6d436f6c6c656374696f6e202d3e204e6f20626964206279206361604482015263363632b960e11b60648201526084016105ec565b6000838152600d60209081526040808320338085529252808320805490849055905190926108fc841502918491818181858888f19350505050158015610fe0573d6000803e3d6000fd5b50604080513081526020810186905233918101919091527fb4b7bfeef342bc38bed50c4af23900b8bfe1ef97943592a983c896816c109d9d906060015b60405180910390a150505050565b8061103560085490565b8111156110545760405162461bcd60e51b81526004016105ec90612b6f565b8161105e81610c0a565b6001600160a01b0316336001600160a01b0316141561108f5760405162461bcd60e51b81526004016105ec90612bcc565b8260016000828152600c6020526040902054610100900460ff1660018111156110ba576110ba6125cf565b146110d75760405162461bcd60e51b81526004016105ec90612d55565b6000848152600d60209081526040808320338452909152902054156111705760405162461bcd60e51b815260206004820152604360248201527f437573746f6d436f6c6c656374696f6e203a20706c616365426964202d3e204360448201527f616e2774206269642074776963652e2043616e63656c2050726576696f757320606482015262189a5960ea1b608482015260a4016105ec565b6000848152600c60205260409020600101543410156112075760405162461bcd60e51b815260206004820152604760248201527f437573746f6d436f6c6c656374696f6e203a20706c616365426964202d3e204360448201527f616e277420626964206c6f776572207468616e206e66742773206d696e696d756064820152666d20707269636560c81b608482015260a4016105ec565b6000848152600d6020908152604080832033808552925290912034908190557f0158f5674dc243762459b88cfc91b10d2d1ef9d40821cca978c2b680aa44468291309187919061125d9064e8d4a5100090612c5e565b60405161101d94939291906001600160a01b039485168152602081019390935292166040820152606081019190915260800190565b61129d338383611e19565b5050565b600260005414156112f45760405162461bcd60e51b815260206004820152601f60248201527f5265656e7472616e637947756172643a207265656e7472616e742063616c6c0060448201526064016105ec565b60026000558161130360085490565b8111156113225760405162461bcd60e51b81526004016105ec90612b6f565b8261132c81610c0a565b6001600160a01b0316336001600160a01b03161461135c5760405162461bcd60e51b81526004016105ec90612d0a565b8360016000828152600c6020526040902054610100900460ff166001811115611387576113876125cf565b146113a45760405162461bcd60e51b81526004016105ec90612d55565b6000858152600d602090815260408083206001600160a01b03881684529091529020546114245760405162461bcd60e51b815260206004820152602860248201527f437573746f6d436f6c6c656374696f6e202d3e204e6f2062696420627920757360448201526765722027746f5f2760c01b60648201526084016105ec565b6009546000868152600c6020908152604080832060020154600d83528184206001600160a01b038a8116865293529220549216916108fc916064916114699190612c29565b6114739190612c5e565b6040518115909202916000818181858888f1935050505015801561149b573d6000803e3d6000fd5b506114a585610c0a565b6001600160a01b03166108fc6064600c60008981526020019081526020016000206002015460646114d69190612c72565b6000898152600d602090815260408083206001600160a01b038c1684529091529020546115039190612c29565b61150d9190612c5e565b6040518115909202916000818181858888f19350505050158015611535573d6000803e3d6000fd5b50611541338587610bef565b7fd150b62f2313c33b378415934acdff9ca2554598f9325710306b1c3e274b741b308661156d88610c0a565b6000898152600d602090815260408083206001600160a01b038c16845290915290205488906115a29064e8d4a5100090612c5e565b6040516115b3959493929190612c89565b60405180910390a160408051308152602081018790526001600160a01b0386168183015290517fb4b7bfeef342bc38bed50c4af23900b8bfe1ef97943592a983c896816c109d9d9181900360600190a150506001600055505050565b6009546001600160a01b031633146116865760405162461bcd60e51b815260206004820152603460248201527f437573746f6d436f6c6c656374696f6e203a206d696e74546f6b656e202d3e206044820152732737ba1031b7b63632b1ba34b7b71037bbb732b960611b60648201526084016105ec565b611694600880546001019055565b600061169f60085490565b90506116ab3382611ee8565b6116b58188611f02565b84156116d157600b546116d1906001600160a01b031682610611565b6000818152600e6020908152604090912083516116f0928501906123fa565b506040518060800160405280871515815260200186611710576001611713565b60005b6001811115611724576117246125cf565b8152602080820187905260409182018690526000848152600c8252919091208251815490151560ff19821681178355928401519192839161ff001990911661ffff199091161761010083600181111561177f5761177f6125cf565b021790555060408201518160010155606082015181600201559050507f88ababcbfaf84afef06ff7e208affbb3e07eee4832c81797c7ab029bb9212cb130828c8c8c8c6040516117d496959493929190612da2565b60405180910390a1604080513081526020810183905260c081830181905260069082015265135a5b9d195960d21b60e082015260006060820181905233608083015260a082015290517fd150b62f2313c33b378415934acdff9ca2554598f9325710306b1c3e274b741b918190036101000190a150505050505050505050565b61185e3383611b93565b61187a5760405162461bcd60e51b81526004016105ec90612b1e565b61188684848484611f8d565b50505050565b606061189782611b08565b6118fd5760405162461bcd60e51b815260206004820152603160248201527f45524337323155524953746f726167653a2055524920717565727920666f72206044820152703737b732bc34b9ba32b73a103a37b5b2b760791b60648201526084016105ec565b6000828152600760205260408120805461191690612ae3565b80601f016020809104026020016040519081016040528092919081815260200182805461194290612ae3565b801561198f5780601f106119645761010080835404028352916020019161198f565b820191906000526020600020905b81548152906001019060200180831161197257829003601f168201915b5050505050905060006119ad60408051602081019091526000815290565b90508051600014156119c0575092915050565b8151156119f25780826040516020016119da929190612e10565b60405160208183030381529060405292505050919050565b6119fb84611fc0565b949350505050565b606081611a0f60085490565b811115611a2e5760405162461bcd60e51b81526004016105ec90612b6f565b82611a3881610c0a565b6001600160a01b0316336001600160a01b031614611a685760405162461bcd60e51b81526004016105ec90612d0a565b6000848152600e602052604090208054611a8190612ae3565b80601f0160208091040260200160405190810160405280929190818152602001828054611aad90612ae3565b8015611afa5780601f10611acf57610100808354040283529160200191611afa565b820191906000526020600020905b815481529060010190602001808311611add57829003601f168201915b505050505092505050919050565b6000908152600360205260409020546001600160a01b0316151590565b600081815260056020526040902080546001600160a01b0319166001600160a01b0384169081179091558190611b5a82610c0a565b6001600160a01b03167f8c5be1e5ebec7d5bd14f71427d1e84f3dd0314c0f7b2291e5b200ac8c7c3b92560405160405180910390a45050565b6000611b9e82611b08565b611bff5760405162461bcd60e51b815260206004820152602c60248201527f4552433732313a206f70657261746f7220717565727920666f72206e6f6e657860448201526b34b9ba32b73a103a37b5b2b760a11b60648201526084016105ec565b6000611c0a83610c0a565b9050806001600160a01b0316846001600160a01b03161480611c455750836001600160a01b0316611c3a84610584565b6001600160a01b0316145b806119fb57506001600160a01b0380821660009081526006602090815260408083209388168352929052205460ff166119fb565b826001600160a01b0316611c8c82610c0a565b6001600160a01b031614611cf45760405162461bcd60e51b815260206004820152602960248201527f4552433732313a207472616e73666572206f6620746f6b656e2074686174206960448201526839903737ba1037bbb760b91b60648201526084016105ec565b6001600160a01b038216611d565760405162461bcd60e51b8152602060048201526024808201527f4552433732313a207472616e7366657220746f20746865207a65726f206164646044820152637265737360e01b60648201526084016105ec565b611d61600082611b25565b6001600160a01b0383166000908152600460205260408120805460019290611d8a908490612c72565b90915550506001600160a01b0382166000908152600460205260408120805460019290611db8908490612e3f565b909155505060008181526003602052604080822080546001600160a01b0319166001600160a01b0386811691821790925591518493918716917fddf252ad1be2c89b69c2b068fc378daa952ba7f163c4a11628f55a4df523b3ef91a4505050565b816001600160a01b0316836001600160a01b03161415611e7b5760405162461bcd60e51b815260206004820152601960248201527f4552433732313a20617070726f766520746f2063616c6c65720000000000000060448201526064016105ec565b6001600160a01b03838116600081815260066020908152604080832094871680845294825291829020805460ff191686151590811790915591519182527f17307eab39ab6107e8899845ad3d59bd9653f200f220920489ca2b5937696c31910160405180910390a3505050565b61129d828260405180602001604052806000815250612098565b611f0b82611b08565b611f6e5760405162461bcd60e51b815260206004820152602e60248201527f45524337323155524953746f726167653a2055524920736574206f66206e6f6e60448201526d32bc34b9ba32b73a103a37b5b2b760911b60648201526084016105ec565b60008281526007602090815260409091208251610722928401906123fa565b611f98848484611c79565b611fa4848484846120cb565b6118865760405162461bcd60e51b81526004016105ec90612e57565b6060611fcb82611b08565b61202f5760405162461bcd60e51b815260206004820152602f60248201527f4552433732314d657461646174613a2055524920717565727920666f72206e6f60448201526e3732bc34b9ba32b73a103a37b5b2b760891b60648201526084016105ec565b600061204660408051602081019091526000815290565b905060008151116120665760405180602001604052806000815250612091565b80612070846121c9565b604051602001612081929190612e10565b6040516020818303038152906040525b9392505050565b6120a283836122c7565b6120af60008484846120cb565b6107225760405162461bcd60e51b81526004016105ec90612e57565b60006001600160a01b0384163b156121be57604051630a85bd0160e11b81526001600160a01b0385169063150b7a029061210f903390899088908890600401612ea9565b6020604051808303816000875af192505050801561214a575060408051601f3d908101601f1916820190925261214791810190612ee6565b60015b6121a4573d808015612178576040519150601f19603f3d011682016040523d82523d6000602084013e61217d565b606091505b50805161219c5760405162461bcd60e51b81526004016105ec90612e57565b805181602001fd5b6001600160e01b031916630a85bd0160e11b1490506119fb565b506001949350505050565b6060816121ed5750506040805180820190915260018152600360fc1b602082015290565b8160005b8115612217578061220181612cef565b91506122109050600a83612c5e565b91506121f1565b60008167ffffffffffffffff81111561223257612232612627565b6040519080825280601f01601f19166020018201604052801561225c576020820181803683370190505b5090505b84156119fb57612271600183612c72565b915061227e600a86612f03565b612289906030612e3f565b60f81b81838151811061229e5761229e612cd9565b60200101906001600160f81b031916908160001a9053506122c0600a86612c5e565b9450612260565b6001600160a01b03821661231d5760405162461bcd60e51b815260206004820181905260248201527f4552433732313a206d696e7420746f20746865207a65726f206164647265737360448201526064016105ec565b61232681611b08565b156123735760405162461bcd60e51b815260206004820152601c60248201527f4552433732313a20746f6b656e20616c7265616479206d696e7465640000000060448201526064016105ec565b6001600160a01b038216600090815260046020526040812080546001929061239c908490612e3f565b909155505060008181526003602052604080822080546001600160a01b0319166001600160a01b03861690811790915590518392907fddf252ad1be2c89b69c2b068fc378daa952ba7f163c4a11628f55a4df523b3ef908290a45050565b82805461240690612ae3565b90600052602060002090601f016020900481019282612428576000855561246e565b82601f1061244157805160ff191683800117855561246e565b8280016001018555821561246e579182015b8281111561246e578251825591602001919060010190612453565b5061247a92915061247e565b5090565b5b8082111561247a576000815560010161247f565b6001600160e01b0319811681146124a957600080fd5b50565b6000602082840312156124be57600080fd5b813561209181612493565b60005b838110156124e45781810151838201526020016124cc565b838111156118865750506000910152565b6000815180845261250d8160208601602086016124c9565b601f01601f19169290920160200192915050565b60208152600061209160208301846124f5565b60006020828403121561254657600080fd5b5035919050565b80356001600160a01b038116811461256457600080fd5b919050565b6000806040838503121561257c57600080fd5b6125858361254d565b946020939093013593505050565b6000806000606084860312156125a857600080fd5b6125b18461254d565b92506125bf6020850161254d565b9150604084013590509250925092565b634e487b7160e01b600052602160045260246000fd5b8415158152608081016002851061260c57634e487b7160e01b600052602160045260246000fd5b84602083015283604083015282606083015295945050505050565b634e487b7160e01b600052604160045260246000fd5b604051601f8201601f1916810167ffffffffffffffff8111828210171561266657612666612627565b604052919050565b600067ffffffffffffffff83111561268857612688612627565b61269b601f8401601f191660200161263d565b90508281528383830111156126af57600080fd5b828260208301376000602084830101529392505050565b600082601f8301126126d757600080fd5b6120918383356020850161266e565b600082601f8301126126f757600080fd5b8135602067ffffffffffffffff8083111561271457612714612627565b8260051b61272383820161263d565b938452858101830193838101908886111561273d57600080fd5b84880192505b858310156127795782358481111561275b5760008081fd5b6127698a87838c01016126c6565b8352509184019190840190612743565b98975050505050505050565b8035801515811461256457600080fd5b60008060008060008060008060006101208a8c0312156127b457600080fd5b893567ffffffffffffffff808211156127cc57600080fd5b6127d88d838e016126e6565b9a5060208c01359150808211156127ee57600080fd5b6127fa8d838e016126e6565b995060408c013591508082111561281057600080fd5b61281c8d838e016126e6565b985060608c013591508082111561283257600080fd5b5061283f8c828d016126e6565b96505061284e60808b01612785565b945061285c60a08b01612785565b935060c08a0135925060e08a013591506101008a013590509295985092959850929598565b6000806000806080858703121561289757600080fd5b843593506128a760208601612785565b92506128b560408601612785565b9396929550929360600135925050565b6000602082840312156128d757600080fd5b6120918261254d565b600080604083850312156128f357600080fd5b6128fc8361254d565b915061290a60208401612785565b90509250929050565b6000806040838503121561292657600080fd5b8235915061290a6020840161254d565b60008060008060008060008060006101208a8c03121561295557600080fd5b893567ffffffffffffffff8082111561296d57600080fd5b6129798d838e016126c6565b9a5060208c013591508082111561298f57600080fd5b61299b8d838e016126c6565b995060408c01359150808211156129b157600080fd5b6129bd8d838e016126c6565b985060608c01359150808211156129d357600080fd5b6129df8d838e016126c6565b97506129ed60808d01612785565b96506129fb60a08d01612785565b955060c08c0135945060e08c013593506101008c0135915080821115612a2057600080fd5b50612a2d8c828d016126c6565b9150509295985092959850929598565b60008060008060808587031215612a5357600080fd5b612a5c8561254d565b9350612a6a6020860161254d565b925060408501359150606085013567ffffffffffffffff811115612a8d57600080fd5b8501601f81018713612a9e57600080fd5b612aad8782356020840161266e565b91505092959194509250565b60008060408385031215612acc57600080fd5b612ad58361254d565b915061290a6020840161254d565b600181811c90821680612af757607f821691505b60208210811415612b1857634e487b7160e01b600052602260045260246000fd5b50919050565b60208082526031908201527f4552433732313a207472616e736665722063616c6c6572206973206e6f74206f6040820152701ddb995c881b9bdc88185c1c1c9bdd9959607a1b606082015260800190565b60208082526039908201527f437573746f6d436f6c6c656374696f6e202d3e20746f6b656e496420646f657360408201527f6e277420636f72726573706f6e6420746f20616e79204e465400000000000000606082015260800190565b60208082526027908201527f437573746f6d436f6c6c656374696f6e202d3e2043616c6c6572206973206e666040820152663a1037bbb732b960c91b606082015260800190565b634e487b7160e01b600052601160045260246000fd5b6000816000190483118215151615612c4357612c43612c13565b500290565b634e487b7160e01b600052601260045260246000fd5b600082612c6d57612c6d612c48565b500490565b600082821015612c8457612c84612c13565b500390565b6001600160a01b039586168152602081019490945260c0604085018190526004908501526314dbdb1960e21b60e08501529184166060840152909216608082015260a08101919091526101000190565b634e487b7160e01b600052603260045260246000fd5b6000600019821415612d0357612d03612c13565b5060010190565b6020808252602b908201527f437573746f6d436f6c6c656374696f6e202d3e2043616c6c6572206973206e6f60408201526a3a1037333a1037bbb732b960a91b606082015260800190565b6020808252602d908201527f437573746f6d436f6c6c656374696f6e202d3e204e465420646f65736e27742060408201526c616c6c6f772062696464696e6760981b606082015260800190565b60018060a01b038716815285602082015260c060408201526000612dc960c08301876124f5565b8281036060840152612ddb81876124f5565b90508281036080840152612def81866124f5565b905082810360a0840152612e0381856124f5565b9998505050505050505050565b60008351612e228184602088016124c9565b835190830190612e368183602088016124c9565b01949350505050565b60008219821115612e5257612e52612c13565b500190565b60208082526032908201527f4552433732313a207472616e7366657220746f206e6f6e20455243373231526560408201527131b2b4bb32b91034b6b83632b6b2b73a32b960711b606082015260800190565b6001600160a01b0385811682528416602082015260408101839052608060608201819052600090612edc908301846124f5565b9695505050505050565b600060208284031215612ef857600080fd5b815161209181612493565b600082612f1257612f12612c48565b50069056fe4e6576657220676f6e6e61206769766520796f752075702c204e6576657220676f6e6e61206c657420796f7520646f776ea26469706673582212206bb14dc6bdd1645c90210102bc080279e3c24cb475a415be3740712403a8034264736f6c634300080a0033",
  "immutableReferences": {},
  "source": "// SPDX-License-Identifier: MIT\r\npragma solidity ^0.8.6;\r\n\r\nimport \"@openzeppelin/contracts/token/ERC721/extensions/ERC721URIStorage.sol\";\r\nimport \"@openzeppelin/contracts/utils/Counters.sol\";\r\nimport \"@openzeppelin/contracts/security/ReentrancyGuard.sol\";\r\nimport \"./Marketplace.sol\";\r\n\r\n// NFTs can be listed for fixed price or bidding\r\nenum SellType {\r\n    FixedPrice,\r\n    Bidding\r\n}\r\n\r\ncontract CustomCollection is ReentrancyGuard, ERC721URIStorage {\r\n    // Maintaining a counter of number of nfts in collection\r\n    using Counters for Counters.Counter;\r\n    Counters.Counter private _tokenIds;\r\n\r\n    // Store collection owner/creator\r\n    address payable public creator;\r\n\r\n    // Store collection Metadata URI\r\n    string collectionMetadataURI;\r\n\r\n    // Store Marketplace address\r\n    address payable marketPlaceAddress;\r\n\r\n    // On Collection creation\r\n    constructor(\r\n        string memory name_,\r\n        string memory symbol_,\r\n        string memory collectionMetadata_,\r\n        address creator_\r\n    ) ERC721(name_, symbol_) {\r\n        creator = payable(creator_);\r\n\r\n        marketPlaceAddress = payable(msg.sender);\r\n\r\n        collectionMetadataURI = collectionMetadata_;\r\n    }\r\n\r\n    // ** NFT ** //\r\n\r\n    // Required NFT data in contract\r\n    // Other constant data is accessed from event logs by subgraph\r\n    struct NFT {\r\n        bool forSale;\r\n        SellType sellType;\r\n        // incase of bidding type NFT price indicates minimum bid\r\n        uint256 price;\r\n        uint256 royalty;\r\n    }\r\n\r\n    // To store nfts (tokenId => NFT)\r\n    mapping(uint256 => NFT) public nfts;\r\n\r\n    // To store bids (tokenId => (address => price))\r\n    mapping(uint256 => mapping(address => uint256)) bids;\r\n\r\n    // tokenId to secret\r\n    mapping(uint256 => string) unlockableContent;\r\n\r\n    // On minting of Nft\r\n    event NFTCreated(\r\n        address cAddress,\r\n        uint256 tokenId,\r\n        string name,\r\n        string image,\r\n        string properties,\r\n        string metadata\r\n    );\r\n\r\n    // On mint/transfer/sale of nft\r\n    event NFTEvent(\r\n        address cAddress,\r\n        uint256 tokenId,\r\n        string eventType,\r\n        address from,\r\n        address to,\r\n        uint256 price\r\n    );\r\n\r\n    // On bid placed\r\n    event BidPlaced(\r\n        address cAddress,\r\n        uint256 tokenId,\r\n        address from,\r\n        uint256 price\r\n    );\r\n\r\n    // On bid canceled\r\n    event BidCanceled(address cAddress, uint256 tokenId, address from);\r\n\r\n    // Checks if NFT with given tokenId exists\r\n    modifier tokenExists(uint256 tokenId) {\r\n        require(\r\n            tokenId <= _tokenIds.current(),\r\n            \"CustomCollection -> tokenId doesn't correspond to any NFT\"\r\n        );\r\n        _;\r\n    }\r\n\r\n    // Checks if owner of tokenId is caller\r\n    modifier callerIsNftOwner(uint256 tokenId) {\r\n        require(\r\n            msg.sender == ownerOf(tokenId),\r\n            \"CustomCollection -> Caller is not nft owner\"\r\n        );\r\n        _;\r\n    }\r\n\r\n    // Checks if owner of tokenId is not caller\r\n    modifier callerIsNotNftOwner(uint256 tokenId) {\r\n        require(\r\n            msg.sender != ownerOf(tokenId),\r\n            \"CustomCollection -> Caller is nft owner\"\r\n        );\r\n        _;\r\n    }\r\n\r\n    // Checks if NFT is listed as open for bids\r\n    modifier isBiddable(uint256 tokenId) {\r\n        require(\r\n            nfts[tokenId].sellType == SellType.Bidding,\r\n            \"CustomCollection -> NFT doesn't allow bidding\"\r\n        );\r\n        _;\r\n    }\r\n\r\n    // List NFT on Marketplace\r\n    function mintNFT(\r\n        string memory name_,\r\n        string memory image_,\r\n        string memory properties_,\r\n        string memory metadata_,\r\n        bool forSale_,\r\n        bool isFixedPrice_,\r\n        uint256 price_,\r\n        uint256 royalty_,\r\n        string memory unlockableString_\r\n    ) public {\r\n        // Only collection owner can mint NFTs\r\n        require(\r\n            msg.sender == creator,\r\n            \"CustomCollection : mintToken -> Not collection owner\"\r\n        );\r\n\r\n        _tokenIds.increment();\r\n        uint256 tokenId = _tokenIds.current();\r\n\r\n        // ERC721 Mint\r\n        _safeMint(msg.sender, tokenId);\r\n\r\n        // ERC721 set Metadata\r\n        _setTokenURI(tokenId, metadata_);\r\n\r\n        // In case of bidding nft transfer is called by owner of nft\r\n        // But for fixed price nft transfer can be only done by marketplace\r\n        if (isFixedPrice_) {\r\n            // ERC721 approve marketplace to manage owner's current token\r\n            approve(marketPlaceAddress, tokenId);\r\n        }\r\n\r\n        // Set unlockableContent\r\n        unlockableContent[tokenId] = unlockableString_;\r\n\r\n        // Store nft in marketplace\r\n        nfts[tokenId] = NFT({\r\n            forSale: forSale_,\r\n            sellType: isFixedPrice_ ? SellType.FixedPrice : SellType.Bidding,\r\n            price: price_,\r\n            royalty: royalty_\r\n        });\r\n\r\n        // Log events to subgraph\r\n        emit NFTCreated(\r\n            address(this),\r\n            tokenId,\r\n            name_,\r\n            image_,\r\n            properties_,\r\n            metadata_\r\n        );\r\n\r\n        emit NFTEvent(\r\n            address(this),\r\n            tokenId,\r\n            \"Minted\",\r\n            address(0),\r\n            msg.sender,\r\n            0\r\n        );\r\n    }\r\n\r\n    // For minting multiple NFTs in batch\r\n    function mintBatch(\r\n        string[] memory names,\r\n        string[] memory images,\r\n        string[] memory properties,\r\n        string[] memory metadatas,\r\n        bool forSale_,\r\n        bool isFixedPrice_,\r\n        uint256 price_,\r\n        uint256 royalty_,\r\n        uint256 nItems\r\n    ) public {\r\n        for (uint256 i = 0; i < nItems; i++) {\r\n            mintNFT(\r\n                names[i],\r\n                images[i],\r\n                properties[i],\r\n                metadatas[i],\r\n                forSale_,\r\n                isFixedPrice_,\r\n                price_,\r\n                royalty_,\r\n                \"Never gonna give you up, Never gonna let you down\"\r\n            );\r\n        }\r\n    }\r\n\r\n    // Buy Fixed Price NFT\r\n    // NonReentrant modifier is used to prevent any Re-Entrancy hacks\r\n    function buyFixedPriceNFT(uint256 tokenId)\r\n        public\r\n        payable\r\n        nonReentrant\r\n        tokenExists(tokenId)\r\n        callerIsNotNftOwner(tokenId)\r\n    {\r\n        NFT memory nft = nfts[tokenId];\r\n\r\n        require(\r\n            nft.sellType == SellType.FixedPrice,\r\n            \"CustomCollection : placeBid -> NFT is listed for bids only\"\r\n        );\r\n        require(\r\n            nft.forSale,\r\n            \"CustomCollection : buyFixedPriceNFT -> NFT is not for sale\"\r\n        );\r\n        require(\r\n            msg.value == nft.price,\r\n            \"CustomCollection : buyFixedPriceNFT -> Please send exact amount as price\"\r\n        );\r\n\r\n        // Tranfer funds to creator as royalty\r\n        creator.transfer(((nft.price * nft.royalty) / 100));\r\n\r\n        // Tranfer remaining funds to current owner\r\n        payable(ownerOf(tokenId)).transfer(\r\n            (nft.price * (100 - nft.royalty)) / 100\r\n        );\r\n\r\n        // Transfer nft to msg.sender\r\n        Marketplace(marketPlaceAddress).marketPlaceTransferFrom(\r\n            address(this),\r\n            ownerOf(tokenId),\r\n            msg.sender,\r\n            tokenId\r\n        );\r\n\r\n        // New owner has to approve marketplace to manage their token\r\n        approve(marketPlaceAddress, tokenId);\r\n\r\n        // After buying the NFT is by default\r\n        // unlisted from sale\r\n        // To list for sale call modifyListingMechanism\r\n        nfts[tokenId].forSale = false;\r\n\r\n        // Log event to subgraph\r\n        emit NFTEvent(\r\n            address(this),\r\n            tokenId,\r\n            \"Sold\",\r\n            ownerOf(tokenId),\r\n            msg.sender,\r\n            nft.price / 1e12\r\n        );\r\n    }\r\n\r\n    // Places bid. Recieves funds from user which are held by the contract\r\n    function placeBid(uint256 tokenId)\r\n        public\r\n        payable\r\n        tokenExists(tokenId)\r\n        callerIsNotNftOwner(tokenId)\r\n        isBiddable(tokenId)\r\n    {\r\n        require(\r\n            bids[tokenId][msg.sender] == 0,\r\n            \"CustomCollection : placeBid -> Can't bid twice. Cancel Previous bid\"\r\n        );\r\n        require(\r\n            msg.value >= nfts[tokenId].price,\r\n            \"CustomCollection : placeBid -> Can't bid lower than nft's minimum price\"\r\n        );\r\n\r\n        // Add bid on chain\r\n        bids[tokenId][msg.sender] = msg.value;\r\n\r\n        // Log event to subgraph\r\n        emit BidPlaced(address(this), tokenId, msg.sender, msg.value / 1e12);\r\n    }\r\n\r\n    // Cancels bid by sender on item with tokenId\r\n    function cancelBid(uint256 tokenId)\r\n        public\r\n        tokenExists(tokenId)\r\n        isBiddable(tokenId)\r\n    {\r\n        require(\r\n            bids[tokenId][msg.sender] != 0,\r\n            \"CustomCollection -> No bid by caller\"\r\n        );\r\n\r\n        uint256 bidAmount = bids[tokenId][msg.sender];\r\n\r\n        // Remove bid on chain\r\n        bids[tokenId][msg.sender] = 0;\r\n\r\n        // Transfer bidder's funds back\r\n        payable(msg.sender).transfer(bidAmount);\r\n\r\n        // Log event to subgraph\r\n        emit BidCanceled(address(this), tokenId, msg.sender);\r\n    }\r\n\r\n    // Sell NFT to a bidder\r\n    // NonReentrant modifier is used to prevent any Re-Entrancy hacks\r\n    function sellBiddingNFT(uint256 tokenId, address to_)\r\n        public\r\n        nonReentrant\r\n        tokenExists(tokenId)\r\n        callerIsNftOwner(tokenId)\r\n        isBiddable(tokenId)\r\n    {\r\n        require(\r\n            bids[tokenId][to_] != 0,\r\n            \"CustomCollection -> No bid by user 'to_'\"\r\n        );\r\n\r\n        // Tranfer funds to creator as royalty\r\n        creator.transfer(((bids[tokenId][to_] * nfts[tokenId].royalty) / 100));\r\n\r\n        // Tranfer remaining funds to current owner\r\n        payable(ownerOf(tokenId)).transfer(\r\n            (bids[tokenId][to_] * (100 - nfts[tokenId].royalty)) / 100\r\n        );\r\n\r\n        // Transfer nft to msg.sender\r\n        safeTransferFrom(msg.sender, to_, tokenId);\r\n\r\n        // Log event to subgraph\r\n        emit NFTEvent(\r\n            address(this),\r\n            tokenId,\r\n            \"Sold\",\r\n            ownerOf(tokenId),\r\n            to_,\r\n            bids[tokenId][to_] / 1e12\r\n        );\r\n\r\n        emit BidCanceled(address(this), tokenId, to_);\r\n    }\r\n\r\n    // Get unlockable content to owner of nft\r\n    function getUnlockableContent(uint256 tokenId)\r\n        public\r\n        view\r\n        tokenExists(tokenId)\r\n        callerIsNftOwner(tokenId)\r\n        returns (string memory)\r\n    {\r\n        return unlockableContent[tokenId];\r\n    }\r\n\r\n    // Modify listing mechanism\r\n    function modifyListingMechanism(\r\n        uint256 tokenId,\r\n        bool setFixPrice,\r\n        bool forSale,\r\n        uint256 newPrice\r\n    )\r\n        public\r\n        // address[] memory bidders\r\n        tokenExists(tokenId)\r\n        callerIsNftOwner(tokenId)\r\n    {\r\n        // For fixed price tokens\r\n        if (nfts[tokenId].sellType == SellType.FixedPrice) {\r\n            if (!setFixPrice) {\r\n                // Convert to bidding and change price\r\n                nfts[tokenId].sellType = SellType.Bidding;\r\n                nfts[tokenId].price = newPrice;\r\n            } else {\r\n                // Change price and forSale status\r\n                nfts[tokenId].forSale = forSale;\r\n                nfts[tokenId].price = newPrice;\r\n            }\r\n        }\r\n        // For bidding tokens (Not Safe)\r\n        // else {\r\n        //     if(setFixPrice) {\r\n        //         // Convert to fixed price and change price, forSale\r\n        //         nfts[tokenId].sellType = SellType.FixedPrice;\r\n        //         nfts[tokenId].forSale = forSale;\r\n        //         nfts[tokenId].price = newPrice;\r\n\r\n        //         // Approve marketplace to trade this token\r\n        //         approve(marketPlaceAddress, tokenId);\r\n\r\n        //         // Cancel all bids, Return their money, emit events\r\n        //         for(uint i=0; i<bidders.length; i++) {\r\n        //             // Transfer bidder's eth back\r\n        //             payable(bidders[i]).transfer(bids[tokenId][bidders[i]]);\r\n\r\n        //             // Remove bid on chain\r\n        //             bids[tokenId][bidders[i]] = 0;\r\n\r\n        //             // Log event to subgraph\r\n        //             emit BidCanceled(address(this), tokenId, bidders[i]);\r\n        //         }\r\n\r\n        //     } else {\r\n        //         // Change minimum price\r\n        //         nfts[tokenId].price = newPrice;\r\n        //     }\r\n        // }\r\n    }\r\n}\r\n",
  "sourcePath": "C:\\Users\\AKASH\\Desktop\\AK\\DEVfolio\\NFT-Generative-Final\\contracts\\CustomCollection.sol",
  "compiler": {
    "name": "solc",
    "version": "0.8.10+commit.fc410830.Emscripten.clang"
  },
  "schemaVersion": "3.4.3",
  "updatedAt": "2021-12-12T12:52:10.747Z",
  "devdoc": {
    "kind": "dev",
    "methods": {
      "approve(address,uint256)": {
        "details": "See {IERC721-approve}."
      },
      "balanceOf(address)": {
        "details": "See {IERC721-balanceOf}."
      },
      "getApproved(uint256)": {
        "details": "See {IERC721-getApproved}."
      },
      "isApprovedForAll(address,address)": {
        "details": "See {IERC721-isApprovedForAll}."
      },
      "name()": {
        "details": "See {IERC721Metadata-name}."
      },
      "ownerOf(uint256)": {
        "details": "See {IERC721-ownerOf}."
      },
      "safeTransferFrom(address,address,uint256)": {
        "details": "See {IERC721-safeTransferFrom}."
      },
      "safeTransferFrom(address,address,uint256,bytes)": {
        "details": "See {IERC721-safeTransferFrom}."
      },
      "setApprovalForAll(address,bool)": {
        "details": "See {IERC721-setApprovalForAll}."
      },
      "supportsInterface(bytes4)": {
        "details": "See {IERC165-supportsInterface}."
      },
      "symbol()": {
        "details": "See {IERC721Metadata-symbol}."
      },
      "tokenURI(uint256)": {
        "details": "See {IERC721Metadata-tokenURI}."
      },
      "transferFrom(address,address,uint256)": {
        "details": "See {IERC721-transferFrom}."
      }
    },
    "version": 1
  },
  "userdoc": {
    "kind": "user",
    "methods": {},
    "version": 1
  }
}