{
  "contractName": "Marketplace",
  "abi": [
    {
      "anonymous": false,
      "inputs": [
        {
          "indexed": false,
          "internalType": "address",
          "name": "cAddress",
          "type": "address"
        },
        {
          "indexed": false,
          "internalType": "string",
          "name": "name",
          "type": "string"
        },
        {
          "indexed": false,
          "internalType": "string",
          "name": "image",
          "type": "string"
        },
        {
          "indexed": false,
          "internalType": "address",
          "name": "creator",
          "type": "address"
        },
        {
          "indexed": false,
          "internalType": "string",
          "name": "metadata",
          "type": "string"
        }
      ],
      "name": "CollectionCreated",
      "type": "event"
    },
    {
      "anonymous": false,
      "inputs": [
        {
          "indexed": false,
          "internalType": "address",
          "name": "uAddress",
          "type": "address"
        },
        {
          "indexed": false,
          "internalType": "string",
          "name": "name",
          "type": "string"
        },
        {
          "indexed": false,
          "internalType": "string",
          "name": "image",
          "type": "string"
        },
        {
          "indexed": false,
          "internalType": "string",
          "name": "twitterUrl",
          "type": "string"
        },
        {
          "indexed": false,
          "internalType": "string",
          "name": "websiteUrl",
          "type": "string"
        }
      ],
      "name": "UserCreated",
      "type": "event"
    },
    {
      "stateMutability": "payable",
      "type": "receive",
      "payable": true
    },
    {
      "inputs": [
        {
          "internalType": "string",
          "name": "name_",
          "type": "string"
        },
        {
          "internalType": "string",
          "name": "image_",
          "type": "string"
        },
        {
          "internalType": "string",
          "name": "twitterUrl_",
          "type": "string"
        },
        {
          "internalType": "string",
          "name": "websiteUrl_",
          "type": "string"
        }
      ],
      "name": "createUser",
      "outputs": [],
      "stateMutability": "nonpayable",
      "type": "function"
    },
    {
      "inputs": [
        {
          "internalType": "string",
          "name": "name_",
          "type": "string"
        },
        {
          "internalType": "string",
          "name": "symbol_",
          "type": "string"
        },
        {
          "internalType": "string",
          "name": "image_",
          "type": "string"
        },
        {
          "internalType": "string",
          "name": "metadata_",
          "type": "string"
        }
      ],
      "name": "createCollection",
      "outputs": [],
      "stateMutability": "nonpayable",
      "type": "function"
    },
    {
      "inputs": [
        {
          "internalType": "address",
          "name": "cAddress",
          "type": "address"
        },
        {
          "internalType": "address",
          "name": "nftOwner",
          "type": "address"
        },
        {
          "internalType": "address",
          "name": "newOwner",
          "type": "address"
        },
        {
          "internalType": "uint256",
          "name": "tokenId",
          "type": "uint256"
        }
      ],
      "name": "marketPlaceTransferFrom",
      "outputs": [],
      "stateMutability": "nonpayable",
      "type": "function"
    }
  ],
  "bytecode": "0x608060405234801561001057600080fd5b506136d4806100206000396000f3fe6080604052600436106200003c5760003560e01c80636f7fcddb1462000049578063c63d15fd1462000070578063fa159278146200009557600080fd5b366200004457005b600080fd5b3480156200005657600080fd5b506200006e620000683660046200033a565b620000ba565b005b3480156200007d57600080fd5b506200006e6200008f36600462000411565b62000101565b348015620000a257600080fd5b506200006e620000b43660046200033a565b620001f6565b7f3a92f8dece62f9b29e9012bd5b5bab2adf3044a1ce972e3d36c0a0b50fb4f36c3385858585604051620000f3959493929190620004b3565b60405180910390a150505050565b336001600160a01b03851614620001845760405162461bcd60e51b815260206004820152603f60248201527f4d61726b6574706c616365203a206d61726b6574506c6163655472616e73666560448201527f7246726f6d202d3e2043616c6c6572206973206e6f7420636f6e747261637400606482015260840160405180910390fd5b604051632142170760e11b81526001600160a01b0384811660048301528381166024830152604482018390528516906342842e0e90606401600060405180830381600087803b158015620001d757600080fd5b505af1158015620001ec573d6000803e3d6000fd5b5050505050505050565b6000848483336040516200020a9062000281565b62000219949392919062000525565b604051809103906000f08015801562000236573d6000803e3d6000fd5b5090507f41adb74ebd8922361cafa5c6b63356985a765d4976cadd38650fef4cffb3c3c98186853386604051620002729594939291906200057e565b60405180910390a15050505050565b6130bd80620005e283390190565b634e487b7160e01b600052604160045260246000fd5b600082601f830112620002b757600080fd5b813567ffffffffffffffff80821115620002d557620002d56200028f565b604051601f8301601f19908116603f011681019082821181831017156200030057620003006200028f565b816040528381528660208588010111156200031a57600080fd5b836020870160208301376000602085830101528094505050505092915050565b600080600080608085870312156200035157600080fd5b843567ffffffffffffffff808211156200036a57600080fd5b6200037888838901620002a5565b955060208701359150808211156200038f57600080fd5b6200039d88838901620002a5565b94506040870135915080821115620003b457600080fd5b620003c288838901620002a5565b93506060870135915080821115620003d957600080fd5b50620003e887828801620002a5565b91505092959194509250565b80356001600160a01b03811681146200040c57600080fd5b919050565b600080600080608085870312156200042857600080fd5b6200043385620003f4565b93506200044360208601620003f4565b92506200045360408601620003f4565b9396929550929360600135925050565b6000815180845260005b818110156200048b576020818501810151868301820152016200046d565b818111156200049e576000602083870101525b50601f01601f19169290920160200192915050565b6001600160a01b038616815260a060208201819052600090620004d99083018762000463565b8281036040840152620004ed818762000463565b9050828103606084015262000503818662000463565b9050828103608084015262000519818562000463565b98975050505050505050565b6080815260006200053a608083018762000463565b82810360208401526200054e818762000463565b9050828103604084015262000564818662000463565b91505060018060a01b038316606083015295945050505050565b600060018060a01b03808816835260a06020840152620005a260a084018862000463565b8381036040850152620005b6818862000463565b905081861660608501528381036080850152620005d4818662000463565b999850505050505050505056fe60806040523480156200001157600080fd5b50604051620030bd380380620030bd833981016040819052620000349162000227565b600160008190558451859185916200005291906020850190620000b4565b50805162000068906002906020840190620000b4565b5050600980546001600160a01b0384166001600160a01b031991821617909155600b805490911633179055508151620000a990600a906020850190620000b4565b505050505062000317565b828054620000c290620002da565b90600052602060002090601f016020900481019282620000e6576000855562000131565b82601f106200010157805160ff191683800117855562000131565b8280016001018555821562000131579182015b828111156200013157825182559160200191906001019062000114565b506200013f92915062000143565b5090565b5b808211156200013f576000815560010162000144565b634e487b7160e01b600052604160045260246000fd5b600082601f8301126200018257600080fd5b81516001600160401b03808211156200019f576200019f6200015a565b604051601f8301601f19908116603f01168101908282118183101715620001ca57620001ca6200015a565b81604052838152602092508683858801011115620001e757600080fd5b600091505b838210156200020b5785820183015181830184015290820190620001ec565b838211156200021d5760008385830101525b9695505050505050565b600080600080608085870312156200023e57600080fd5b84516001600160401b03808211156200025657600080fd5b620002648883890162000170565b955060208701519150808211156200027b57600080fd5b620002898883890162000170565b94506040870151915080821115620002a057600080fd5b50620002af8782880162000170565b606087015190935090506001600160a01b0381168114620002cf57600080fd5b939692955090935050565b600181811c90821680620002ef57607f821691505b602082108114156200031157634e487b7160e01b600052602260045260246000fd5b50919050565b612d9680620003276000396000f3fe6080604052600436106101355760003560e01c806370a08231116100ab578063af345ec61161006f578063af345ec61461038c578063afc7fbd5146103ac578063b88d4fde146103cc578063c87b56dd146103ec578063e985e9c51461040c578063fe4867121461045557600080fd5b806370a08231146102f657806395d89b41146103245780639703ef35146103395780639979ef4514610359578063a22cb4651461036c57600080fd5b806323b872dd116100fd57806323b872dd1461020b578063265aa6211461022b5780632af6c4481461028357806342842e0e146102965780636352211e146102b65780636fe04294146102d657600080fd5b806301ffc9a71461013a57806302d05d3f1461016f57806306fdde03146101a7578063081812fc146101c9578063095ea7b3146101e9575b600080fd5b34801561014657600080fd5b5061015a610155366004612493565b610475565b60405190151581526020015b60405180910390f35b34801561017b57600080fd5b5060095461018f906001600160a01b031681565b6040516001600160a01b039091168152602001610166565b3480156101b357600080fd5b506101bc6104c7565b6040516101669190612508565b3480156101d557600080fd5b5061018f6101e436600461251b565b610559565b3480156101f557600080fd5b50610209610204366004612550565b6105e6565b005b34801561021757600080fd5b5061020961022636600461257a565b6106fc565b34801561023757600080fd5b5061027361024636600461251b565b600c6020526000908152604090208054600182015460029092015460ff8083169361010090930416919084565b60405161016694939291906125cc565b61020961029136600461251b565b61072d565b3480156102a257600080fd5b506102096102b136600461257a565b610c1d565b3480156102c257600080fd5b5061018f6102d136600461251b565b610c38565b3480156102e257600080fd5b506102096102f136600461261e565b610caf565b34801561030257600080fd5b50610316610311366004612662565b610d95565b604051908152602001610166565b34801561033057600080fd5b506101bc610e1c565b34801561034557600080fd5b5061020961035436600461251b565b610e2b565b61020961036736600461251b565b610fa3565b34801561037857600080fd5b5061020961038736600461267d565b61120a565b34801561039857600080fd5b506102096103a73660046126b0565b611219565b3480156103b857600080fd5b506102096103c736600461277f565b6115f6565b3480156103d857600080fd5b506102096103e7366004612886565b61183b565b3480156103f857600080fd5b506101bc61040736600461251b565b611873565b34801561041857600080fd5b5061015a610427366004612902565b6001600160a01b03918216600090815260066020908152604080832093909416825291909152205460ff1690565b34801561046157600080fd5b506101bc61047036600461251b565b6119ea565b60006001600160e01b031982166380ac58cd60e01b14806104a657506001600160e01b03198216635b5e139f60e01b145b806104c157506301ffc9a760e01b6001600160e01b03198316145b92915050565b6060600180546104d69061292c565b80601f01602080910402602001604051908101604052809291908181526020018280546105029061292c565b801561054f5780601f106105245761010080835404028352916020019161054f565b820191906000526020600020905b81548152906001019060200180831161053257829003601f168201915b5050505050905090565b600061056482611aef565b6105ca5760405162461bcd60e51b815260206004820152602c60248201527f4552433732313a20617070726f76656420717565727920666f72206e6f6e657860448201526b34b9ba32b73a103a37b5b2b760a11b60648201526084015b60405180910390fd5b506000908152600560205260409020546001600160a01b031690565b60006105f182610c38565b9050806001600160a01b0316836001600160a01b0316141561065f5760405162461bcd60e51b815260206004820152602160248201527f4552433732313a20617070726f76616c20746f2063757272656e74206f776e656044820152603960f91b60648201526084016105c1565b336001600160a01b038216148061067b575061067b8133610427565b6106ed5760405162461bcd60e51b815260206004820152603860248201527f4552433732313a20617070726f76652063616c6c6572206973206e6f74206f7760448201527f6e6572206e6f7220617070726f76656420666f7220616c6c000000000000000060648201526084016105c1565b6106f78383611b0c565b505050565b6107063382611b7a565b6107225760405162461bcd60e51b81526004016105c190612967565b6106f7838383611c60565b600260005414156107805760405162461bcd60e51b815260206004820152601f60248201527f5265656e7472616e637947756172643a207265656e7472616e742063616c6c0060448201526064016105c1565b60026000558061078f60085490565b8111156107ae5760405162461bcd60e51b81526004016105c1906129b8565b816107b881610c38565b6001600160a01b0316336001600160a01b031614156107e95760405162461bcd60e51b81526004016105c190612a15565b6000838152600c60209081526040808320815160808101909252805460ff80821615158452929391929184019161010090910416600181111561082e5761082e6125b6565b600181111561083f5761083f6125b6565b8152600182015460208201526002909101546040909101529050600081602001516001811115610871576108716125b6565b146108e45760405162461bcd60e51b815260206004820152603a60248201527f437573746f6d436f6c6c656374696f6e203a20706c616365426964202d3e204e60448201527f4654206973206c697374656420666f722062696473206f6e6c7900000000000060648201526084016105c1565b80516109585760405162461bcd60e51b815260206004820152603a60248201527f437573746f6d436f6c6c656374696f6e203a206275794669786564507269636560448201527f4e4654202d3e204e4654206973206e6f7420666f722073616c6500000000000060648201526084016105c1565b806040015134146109e25760405162461bcd60e51b815260206004820152604860248201527f437573746f6d436f6c6c656374696f6e203a206275794669786564507269636560448201527f4e4654202d3e20506c656173652073656e6420657861637420616d6f756e7420606482015267617320707269636560c01b608482015260a4016105c1565b600954606082015160408301516001600160a01b03909216916108fc91606491610a0c9190612a72565b610a169190612aa7565b6040518115909202916000818181858888f19350505050158015610a3e573d6000803e3d6000fd5b50600b5460408201516001600160a01b03909116906108fc90610a6390606490612aa7565b6040518115909202916000818181858888f19350505050158015610a8b573d6000803e3d6000fd5b50610a9584610c38565b6001600160a01b03166108fc6064600184606001516064610ab69190612abb565b610ac09190612abb565b8460400151610acf9190612a72565b610ad99190612aa7565b6040518115909202916000818181858888f19350505050158015610b01573d6000803e3d6000fd5b50600b546001600160a01b031663c63d15fd30610b1d87610c38565b6040516001600160e01b031960e085901b1681526001600160a01b0392831660048201529116602482015233604482015260648101879052608401600060405180830381600087803b158015610b7257600080fd5b505af1158015610b86573d6000803e3d6000fd5b5050600b54610ba192506001600160a01b03169050856105e6565b6000848152600c60205260409020805460ff191690557fd150b62f2313c33b378415934acdff9ca2554598f9325710306b1c3e274b741b3085610be381610c38565b3364e8d4a510008660400151610bf99190612aa7565b604051610c0a959493929190612ad2565b60405180910390a1505060016000555050565b6106f78383836040518060200160405280600081525061183b565b6000818152600360205260408120546001600160a01b0316806104c15760405162461bcd60e51b815260206004820152602960248201527f4552433732313a206f776e657220717565727920666f72206e6f6e657869737460448201526832b73a103a37b5b2b760b91b60648201526084016105c1565b83610cb960085490565b811115610cd85760405162461bcd60e51b81526004016105c1906129b8565b84610ce281610c38565b6001600160a01b0316336001600160a01b031614610d125760405162461bcd60e51b81526004016105c190612b22565b600080878152600c6020526040902054610100900460ff166001811115610d3b57610d3b6125b6565b1415610d8d5784610d6c576000868152600c60205260409020805461ff001916610100178155600101839055610d8d565b6000868152600c60205260409020805460ff19168515151781556001018390555b505050505050565b60006001600160a01b038216610e005760405162461bcd60e51b815260206004820152602a60248201527f4552433732313a2062616c616e636520717565727920666f7220746865207a65604482015269726f206164647265737360b01b60648201526084016105c1565b506001600160a01b031660009081526004602052604090205490565b6060600280546104d69061292c565b80610e3560085490565b811115610e545760405162461bcd60e51b81526004016105c1906129b8565b8160016000828152600c6020526040902054610100900460ff166001811115610e7f57610e7f6125b6565b14610e9c5760405162461bcd60e51b81526004016105c190612b6d565b6000838152600d60209081526040808320338452909152902054610f0e5760405162461bcd60e51b8152602060048201526024808201527f437573746f6d436f6c6c656374696f6e202d3e204e6f20626964206279206361604482015263363632b960e11b60648201526084016105c1565b6000838152600d60209081526040808320338085529252808320805490849055905190926108fc841502918491818181858888f19350505050158015610f58573d6000803e3d6000fd5b50604080513081526020810186905233918101919091527fb4b7bfeef342bc38bed50c4af23900b8bfe1ef97943592a983c896816c109d9d906060015b60405180910390a150505050565b80610fad60085490565b811115610fcc5760405162461bcd60e51b81526004016105c1906129b8565b81610fd681610c38565b6001600160a01b0316336001600160a01b031614156110075760405162461bcd60e51b81526004016105c190612a15565b8260016000828152600c6020526040902054610100900460ff166001811115611032576110326125b6565b1461104f5760405162461bcd60e51b81526004016105c190612b6d565b6000848152600d60209081526040808320338452909152902054156110e85760405162461bcd60e51b815260206004820152604360248201527f437573746f6d436f6c6c656374696f6e203a20706c616365426964202d3e204360448201527f616e2774206269642074776963652e2043616e63656c2050726576696f757320606482015262189a5960ea1b608482015260a4016105c1565b6000848152600c602052604090206001015434101561117f5760405162461bcd60e51b815260206004820152604760248201527f437573746f6d436f6c6c656374696f6e203a20706c616365426964202d3e204360448201527f616e277420626964206c6f776572207468616e206e66742773206d696e696d756064820152666d20707269636560c81b608482015260a4016105c1565b6000848152600d6020908152604080832033808552925290912034908190557f0158f5674dc243762459b88cfc91b10d2d1ef9d40821cca978c2b680aa4446829130918791906111d59064e8d4a5100090612aa7565b604051610f9594939291906001600160a01b039485168152602081019390935292166040820152606081019190915260800190565b611215338383611e00565b5050565b6002600054141561126c5760405162461bcd60e51b815260206004820152601f60248201527f5265656e7472616e637947756172643a207265656e7472616e742063616c6c0060448201526064016105c1565b60026000558161127b60085490565b81111561129a5760405162461bcd60e51b81526004016105c1906129b8565b826112a481610c38565b6001600160a01b0316336001600160a01b0316146112d45760405162461bcd60e51b81526004016105c190612b22565b8360016000828152600c6020526040902054610100900460ff1660018111156112ff576112ff6125b6565b1461131c5760405162461bcd60e51b81526004016105c190612b6d565b6000858152600d602090815260408083206001600160a01b038816845290915290205461139c5760405162461bcd60e51b815260206004820152602860248201527f437573746f6d436f6c6c656374696f6e202d3e204e6f2062696420627920757360448201526765722027746f5f2760c01b60648201526084016105c1565b6009546000868152600c6020908152604080832060020154600d83528184206001600160a01b038a8116865293529220549216916108fc916064916113e19190612a72565b6113eb9190612aa7565b6040518115909202916000818181858888f19350505050158015611413573d6000803e3d6000fd5b50600b546000868152600d602090815260408083206001600160a01b0389811685529252909120549116906108fc9061144e90606490612aa7565b6040518115909202916000818181858888f19350505050158015611476573d6000803e3d6000fd5b5061148085610c38565b6001600160a01b03166108fc60646001600c60008a81526020019081526020016000206002015460646114b39190612abb565b6114bd9190612abb565b6000898152600d602090815260408083206001600160a01b038c1684529091529020546114ea9190612a72565b6114f49190612aa7565b6040518115909202916000818181858888f1935050505015801561151c573d6000803e3d6000fd5b50611528338587610c1d565b7fd150b62f2313c33b378415934acdff9ca2554598f9325710306b1c3e274b741b308661155488610c38565b6000898152600d602090815260408083206001600160a01b038c16845290915290205488906115899064e8d4a5100090612aa7565b60405161159a959493929190612ad2565b60405180910390a160408051308152602081018790526001600160a01b0386168183015290517fb4b7bfeef342bc38bed50c4af23900b8bfe1ef97943592a983c896816c109d9d9181900360600190a150506001600055505050565b6009546001600160a01b0316331461166d5760405162461bcd60e51b815260206004820152603460248201527f437573746f6d436f6c6c656374696f6e203a206d696e74546f6b656e202d3e206044820152732737ba1031b7b63632b1ba34b7b71037bbb732b960611b60648201526084016105c1565b61167b600880546001019055565b600061168660085490565b90506116923382611ecf565b61169c8188611ee9565b84156116b857600b546116b8906001600160a01b0316826105e6565b6000818152600e6020908152604090912083516116d7928501906123e1565b5060405180608001604052808715158152602001866116f75760016116fa565b60005b600181111561170b5761170b6125b6565b8152602080820187905260409182018690526000848152600c8252919091208251815490151560ff19821681178355928401519192839161ff001990911661ffff1990911617610100836001811115611766576117666125b6565b021790555060408201518160010155606082015181600201559050507f88ababcbfaf84afef06ff7e208affbb3e07eee4832c81797c7ab029bb9212cb130828c8c8c8c6040516117bb96959493929190612bba565b60405180910390a1604080513081526020810183905260c081830181905260069082015265135a5b9d195960d21b60e082015260006060820181905233608083015260a082015290517fd150b62f2313c33b378415934acdff9ca2554598f9325710306b1c3e274b741b918190036101000190a150505050505050505050565b6118453383611b7a565b6118615760405162461bcd60e51b81526004016105c190612967565b61186d84848484611f74565b50505050565b606061187e82611aef565b6118e45760405162461bcd60e51b815260206004820152603160248201527f45524337323155524953746f726167653a2055524920717565727920666f72206044820152703737b732bc34b9ba32b73a103a37b5b2b760791b60648201526084016105c1565b600082815260076020526040812080546118fd9061292c565b80601f01602080910402602001604051908101604052809291908181526020018280546119299061292c565b80156119765780601f1061194b57610100808354040283529160200191611976565b820191906000526020600020905b81548152906001019060200180831161195957829003601f168201915b50505050509050600061199460408051602081019091526000815290565b90508051600014156119a7575092915050565b8151156119d95780826040516020016119c1929190612c28565b60405160208183030381529060405292505050919050565b6119e284611fa7565b949350505050565b6060816119f660085490565b811115611a155760405162461bcd60e51b81526004016105c1906129b8565b82611a1f81610c38565b6001600160a01b0316336001600160a01b031614611a4f5760405162461bcd60e51b81526004016105c190612b22565b6000848152600e602052604090208054611a689061292c565b80601f0160208091040260200160405190810160405280929190818152602001828054611a949061292c565b8015611ae15780601f10611ab657610100808354040283529160200191611ae1565b820191906000526020600020905b815481529060010190602001808311611ac457829003601f168201915b505050505092505050919050565b6000908152600360205260409020546001600160a01b0316151590565b600081815260056020526040902080546001600160a01b0319166001600160a01b0384169081179091558190611b4182610c38565b6001600160a01b03167f8c5be1e5ebec7d5bd14f71427d1e84f3dd0314c0f7b2291e5b200ac8c7c3b92560405160405180910390a45050565b6000611b8582611aef565b611be65760405162461bcd60e51b815260206004820152602c60248201527f4552433732313a206f70657261746f7220717565727920666f72206e6f6e657860448201526b34b9ba32b73a103a37b5b2b760a11b60648201526084016105c1565b6000611bf183610c38565b9050806001600160a01b0316846001600160a01b03161480611c2c5750836001600160a01b0316611c2184610559565b6001600160a01b0316145b806119e257506001600160a01b0380821660009081526006602090815260408083209388168352929052205460ff166119e2565b826001600160a01b0316611c7382610c38565b6001600160a01b031614611cdb5760405162461bcd60e51b815260206004820152602960248201527f4552433732313a207472616e73666572206f6620746f6b656e2074686174206960448201526839903737ba1037bbb760b91b60648201526084016105c1565b6001600160a01b038216611d3d5760405162461bcd60e51b8152602060048201526024808201527f4552433732313a207472616e7366657220746f20746865207a65726f206164646044820152637265737360e01b60648201526084016105c1565b611d48600082611b0c565b6001600160a01b0383166000908152600460205260408120805460019290611d71908490612abb565b90915550506001600160a01b0382166000908152600460205260408120805460019290611d9f908490612c57565b909155505060008181526003602052604080822080546001600160a01b0319166001600160a01b0386811691821790925591518493918716917fddf252ad1be2c89b69c2b068fc378daa952ba7f163c4a11628f55a4df523b3ef91a4505050565b816001600160a01b0316836001600160a01b03161415611e625760405162461bcd60e51b815260206004820152601960248201527f4552433732313a20617070726f766520746f2063616c6c65720000000000000060448201526064016105c1565b6001600160a01b03838116600081815260066020908152604080832094871680845294825291829020805460ff191686151590811790915591519182527f17307eab39ab6107e8899845ad3d59bd9653f200f220920489ca2b5937696c31910160405180910390a3505050565b61121582826040518060200160405280600081525061207f565b611ef282611aef565b611f555760405162461bcd60e51b815260206004820152602e60248201527f45524337323155524953746f726167653a2055524920736574206f66206e6f6e60448201526d32bc34b9ba32b73a103a37b5b2b760911b60648201526084016105c1565b600082815260076020908152604090912082516106f7928401906123e1565b611f7f848484611c60565b611f8b848484846120b2565b61186d5760405162461bcd60e51b81526004016105c190612c6f565b6060611fb282611aef565b6120165760405162461bcd60e51b815260206004820152602f60248201527f4552433732314d657461646174613a2055524920717565727920666f72206e6f60448201526e3732bc34b9ba32b73a103a37b5b2b760891b60648201526084016105c1565b600061202d60408051602081019091526000815290565b9050600081511161204d5760405180602001604052806000815250612078565b80612057846121b0565b604051602001612068929190612c28565b6040516020818303038152906040525b9392505050565b61208983836122ae565b61209660008484846120b2565b6106f75760405162461bcd60e51b81526004016105c190612c6f565b60006001600160a01b0384163b156121a557604051630a85bd0160e11b81526001600160a01b0385169063150b7a02906120f6903390899088908890600401612cc1565b6020604051808303816000875af1925050508015612131575060408051601f3d908101601f1916820190925261212e91810190612cfe565b60015b61218b573d80801561215f576040519150601f19603f3d011682016040523d82523d6000602084013e612164565b606091505b5080516121835760405162461bcd60e51b81526004016105c190612c6f565b805181602001fd5b6001600160e01b031916630a85bd0160e11b1490506119e2565b506001949350505050565b6060816121d45750506040805180820190915260018152600360fc1b602082015290565b8160005b81156121fe57806121e881612d1b565b91506121f79050600a83612aa7565b91506121d8565b60008167ffffffffffffffff811115612219576122196126d3565b6040519080825280601f01601f191660200182016040528015612243576020820181803683370190505b5090505b84156119e257612258600183612abb565b9150612265600a86612d36565b612270906030612c57565b60f81b81838151811061228557612285612d4a565b60200101906001600160f81b031916908160001a9053506122a7600a86612aa7565b9450612247565b6001600160a01b0382166123045760405162461bcd60e51b815260206004820181905260248201527f4552433732313a206d696e7420746f20746865207a65726f206164647265737360448201526064016105c1565b61230d81611aef565b1561235a5760405162461bcd60e51b815260206004820152601c60248201527f4552433732313a20746f6b656e20616c7265616479206d696e7465640000000060448201526064016105c1565b6001600160a01b0382166000908152600460205260408120805460019290612383908490612c57565b909155505060008181526003602052604080822080546001600160a01b0319166001600160a01b03861690811790915590518392907fddf252ad1be2c89b69c2b068fc378daa952ba7f163c4a11628f55a4df523b3ef908290a45050565b8280546123ed9061292c565b90600052602060002090601f01602090048101928261240f5760008555612455565b82601f1061242857805160ff1916838001178555612455565b82800160010185558215612455579182015b8281111561245557825182559160200191906001019061243a565b50612461929150612465565b5090565b5b808211156124615760008155600101612466565b6001600160e01b03198116811461249057600080fd5b50565b6000602082840312156124a557600080fd5b81356120788161247a565b60005b838110156124cb5781810151838201526020016124b3565b8381111561186d5750506000910152565b600081518084526124f48160208601602086016124b0565b601f01601f19169290920160200192915050565b60208152600061207860208301846124dc565b60006020828403121561252d57600080fd5b5035919050565b80356001600160a01b038116811461254b57600080fd5b919050565b6000806040838503121561256357600080fd5b61256c83612534565b946020939093013593505050565b60008060006060848603121561258f57600080fd5b61259884612534565b92506125a660208501612534565b9150604084013590509250925092565b634e487b7160e01b600052602160045260246000fd5b841515815260808101600285106125f357634e487b7160e01b600052602160045260246000fd5b84602083015283604083015282606083015295945050505050565b8035801515811461254b57600080fd5b6000806000806080858703121561263457600080fd5b843593506126446020860161260e565b92506126526040860161260e565b9396929550929360600135925050565b60006020828403121561267457600080fd5b61207882612534565b6000806040838503121561269057600080fd5b61269983612534565b91506126a76020840161260e565b90509250929050565b600080604083850312156126c357600080fd5b823591506126a760208401612534565b634e487b7160e01b600052604160045260246000fd5b600067ffffffffffffffff80841115612704576127046126d3565b604051601f8501601f19908116603f0116810190828211818310171561272c5761272c6126d3565b8160405280935085815286868601111561274557600080fd5b858560208301376000602087830101525050509392505050565b600082601f83011261277057600080fd5b612078838335602085016126e9565b60008060008060008060008060006101208a8c03121561279e57600080fd5b893567ffffffffffffffff808211156127b657600080fd5b6127c28d838e0161275f565b9a5060208c01359150808211156127d857600080fd5b6127e48d838e0161275f565b995060408c01359150808211156127fa57600080fd5b6128068d838e0161275f565b985060608c013591508082111561281c57600080fd5b6128288d838e0161275f565b975061283660808d0161260e565b965061284460a08d0161260e565b955060c08c0135945060e08c013593506101008c013591508082111561286957600080fd5b506128768c828d0161275f565b9150509295985092959850929598565b6000806000806080858703121561289c57600080fd5b6128a585612534565b93506128b360208601612534565b925060408501359150606085013567ffffffffffffffff8111156128d657600080fd5b8501601f810187136128e757600080fd5b6128f6878235602084016126e9565b91505092959194509250565b6000806040838503121561291557600080fd5b61291e83612534565b91506126a760208401612534565b600181811c9082168061294057607f821691505b6020821081141561296157634e487b7160e01b600052602260045260246000fd5b50919050565b60208082526031908201527f4552433732313a207472616e736665722063616c6c6572206973206e6f74206f6040820152701ddb995c881b9bdc88185c1c1c9bdd9959607a1b606082015260800190565b60208082526039908201527f437573746f6d436f6c6c656374696f6e202d3e20746f6b656e496420646f657360408201527f6e277420636f72726573706f6e6420746f20616e79204e465400000000000000606082015260800190565b60208082526027908201527f437573746f6d436f6c6c656374696f6e202d3e2043616c6c6572206973206e666040820152663a1037bbb732b960c91b606082015260800190565b634e487b7160e01b600052601160045260246000fd5b6000816000190483118215151615612a8c57612a8c612a5c565b500290565b634e487b7160e01b600052601260045260246000fd5b600082612ab657612ab6612a91565b500490565b600082821015612acd57612acd612a5c565b500390565b6001600160a01b039586168152602081019490945260c0604085018190526004908501526314dbdb1960e21b60e08501529184166060840152909216608082015260a08101919091526101000190565b6020808252602b908201527f437573746f6d436f6c6c656374696f6e202d3e2043616c6c6572206973206e6f60408201526a3a1037333a1037bbb732b960a91b606082015260800190565b6020808252602d908201527f437573746f6d436f6c6c656374696f6e202d3e204e465420646f65736e27742060408201526c616c6c6f772062696464696e6760981b606082015260800190565b60018060a01b038716815285602082015260c060408201526000612be160c08301876124dc565b8281036060840152612bf381876124dc565b90508281036080840152612c0781866124dc565b905082810360a0840152612c1b81856124dc565b9998505050505050505050565b60008351612c3a8184602088016124b0565b835190830190612c4e8183602088016124b0565b01949350505050565b60008219821115612c6a57612c6a612a5c565b500190565b60208082526032908201527f4552433732313a207472616e7366657220746f206e6f6e20455243373231526560408201527131b2b4bb32b91034b6b83632b6b2b73a32b960711b606082015260800190565b6001600160a01b0385811682528416602082015260408101839052608060608201819052600090612cf4908301846124dc565b9695505050505050565b600060208284031215612d1057600080fd5b81516120788161247a565b6000600019821415612d2f57612d2f612a5c565b5060010190565b600082612d4557612d45612a91565b500690565b634e487b7160e01b600052603260045260246000fdfea2646970667358221220fb855f424bbf9202815c794bea3b09edb096b58a84534cf0e2daa2c6a20e077264736f6c634300080a0033a2646970667358221220d2281aaa58d0a70c659bbf4fb2bae656640f07b316555d7a573e6ece322eae4664736f6c634300080a0033",
  "immutableReferences": {},
  "source": "// SPDX-License-Identifier: MIT\r\npragma solidity ^0.8.6;\r\n\r\nimport \"./CustomCollection.sol\";\r\n\r\ncontract Marketplace {\r\n    // ** User ** //\r\n\r\n    // // To store user\r\n    // struct User {\r\n    //     string name;\r\n    //     string image;\r\n    //     string twitterUrl;\r\n    //     string websiteUrl;\r\n    // }\r\n\r\n    // // To store users (address => string)\r\n    // mapping(address => User) public users;\r\n\r\n    // On user creation\r\n    event UserCreated(\r\n        address uAddress,\r\n        string name,\r\n        string image,\r\n        string twitterUrl,\r\n        string websiteUrl\r\n    );\r\n\r\n    // Create/Update user profile\r\n    function createUser(\r\n        string memory name_,\r\n        string memory image_,\r\n        string memory twitterUrl_,\r\n        string memory websiteUrl_\r\n    ) public {\r\n        // Map User to address\r\n        // users[msg.sender] = User(name_, metadata_);\r\n\r\n        // Log event to subgraph\r\n        emit UserCreated(msg.sender, name_, image_, twitterUrl_, websiteUrl_);\r\n    }\r\n\r\n    // ** Custom Collection ** //\r\n\r\n    // On collection creation\r\n    event CollectionCreated(\r\n        address cAddress,\r\n        string name,\r\n        string image,\r\n        address creator,\r\n        string metadata\r\n    );\r\n\r\n    // Create and List collection on marketplace\r\n    function createCollection(\r\n        string memory name_,\r\n        string memory symbol_,\r\n        string memory image_,\r\n        string memory metadata_\r\n    ) public {\r\n        address cAddress = address(\r\n            new CustomCollection(name_, symbol_, metadata_, msg.sender)\r\n        );\r\n\r\n        // Log event to subgraph\r\n        emit CollectionCreated(cAddress, name_, image_, msg.sender, metadata_);\r\n    }\r\n\r\n    // To buy fixed price nfts\r\n    function marketPlaceTransferFrom(\r\n        address cAddress,\r\n        address nftOwner,\r\n        address newOwner,\r\n        uint256 tokenId\r\n    ) public {\r\n        // Check if caller is collection\r\n        require(\r\n            msg.sender == cAddress,\r\n            \"Marketplace : marketPlaceTransferFrom -> Caller is not contract\"\r\n        );\r\n\r\n        CustomCollection(cAddress).safeTransferFrom(\r\n            nftOwner,\r\n            newOwner,\r\n            tokenId\r\n        );\r\n    }\r\n\r\n    // To receive ether\r\n    // Function to receive Ether. msg.data must be empty\r\n    receive() external payable {}\r\n}\r\n",
  "sourcePath": "F:\\ethdev\\generative-nft\\contracts\\Marketplace.sol",
  "compiler": {
    "name": "solc",
    "version": "0.8.10+commit.fc410830.Emscripten.clang"
  },
  "schemaVersion": "3.4.3",
  "updatedAt": "2021-12-11T04:12:45.267Z",
  "networkType": "ethereum",
  "devdoc": {
    "kind": "dev",
    "methods": {},
    "version": 1
  },
  "userdoc": {
    "kind": "user",
    "methods": {},
    "version": 1
  }
}