{
  "contractName": "Pricefeed",
  "abi": [
    {
      "inputs": [],
      "stateMutability": "nonpayable",
      "type": "constructor"
    },
    {
      "inputs": [],
      "name": "getLatestPrice",
      "outputs": [
        {
          "internalType": "int256",
          "name": "",
          "type": "int256"
        }
      ],
      "stateMutability": "view",
      "type": "function"
    }
  ],
  "bytecode": "0x608060405234801561001057600080fd5b50600080546001600160a01b03191673d0d5e3db44de05e9f294bb0a3beeaf030de24ada17905561017c806100466000396000f3fe608060405234801561001057600080fd5b506004361061002b5760003560e01c80638e15f47314610030575b600080fd5b61003861004a565b60405190815260200160405180910390f35b60008060008060008060008054906101000a90046001600160a01b03166001600160a01b031663feaf968c6040518163ffffffff1660e01b815260040160a060405180830381865afa1580156100a4573d6000803e3d6000fd5b505050506040513d601f19601f820116820180604052508101906100c891906100f6565b50919998505050505050505050565b805169ffffffffffffffffffff811681146100f157600080fd5b919050565b600080600080600060a0868803121561010e57600080fd5b610117866100d7565b945060208601519350604086015192506060860151915061013a608087016100d7565b9050929550929590935056fea2646970667358221220ff1553ec4a78e47d7ef118da2f15ef2ba2367644ae88f418a21de31b951ef36664736f6c634300080a0033",
  "immutableReferences": {},
  "source": "// SPDX-License-Identifier: MIT\r\npragma solidity ^0.8.6;\r\n\r\nimport \"@chainlink/contracts/src/v0.8/interfaces/AggregatorV3Interface.sol\";\r\n\r\ncontract Pricefeed {\r\n\r\n    AggregatorV3Interface internal priceFeed;\r\n\r\n    /**\r\n     * Network: Mumbai Testnet\r\n     * Aggregator: MATIC/USD\r\n     * Decimal: 8\r\n     * Address: 0xd0D5e3DB44DE05E9F294BB0a3bEEaF030DE24Ada\r\n     */\r\n    constructor() {\r\n        priceFeed = AggregatorV3Interface(0xd0D5e3DB44DE05E9F294BB0a3bEEaF030DE24Ada);\r\n    }\r\n\r\n    /**\r\n     * Returns the latest price\r\n     */\r\n    function getLatestPrice() public view returns (int) {\r\n        (\r\n            uint80 roundID, \r\n            int price,\r\n            uint startedAt,\r\n            uint timeStamp,\r\n            uint80 answeredInRound\r\n        ) = priceFeed.latestRoundData();\r\n        return price;\r\n    } \r\n}",
  "sourcePath": "F:\\ethdev\\generative-nft\\contracts\\PriceFeed.sol",
  "compiler": {
    "name": "solc",
    "version": "0.8.10+commit.fc410830.Emscripten.clang"
  },
  "schemaVersion": "3.4.3",
  "updatedAt": "2021-12-12T13:57:29.789Z",
  "devdoc": {
    "kind": "dev",
    "methods": {},
    "version": 1
  },
  "userdoc": {
    "kind": "user",
    "methods": {
      "constructor": {
        "notice": "Network: Mumbai Testnet Aggregator: MATIC/USD Decimal: 8 Address: 0xd0D5e3DB44DE05E9F294BB0a3bEEaF030DE24Ada"
      },
      "getLatestPrice()": {
        "notice": "Returns the latest price"
      }
    },
    "version": 1
  }
}